:040FF800005007009E
:040FFC0000E007000A
:0200000270008C
:10500000000001205D530700455307004753070088
:10501000495307004B5307004D53070000000000A1
:10502000000000000000000000000000E1B60700E2
:105030005153070000000000535307005553070069
:1050400057530700575307001170070057530700C5
:10505000575307005753070057530700575307008C
:10506000575307005753070057530700575307007C
:10507000575307005753070057530700575307006C
:10508000E19707004961070057530700575307008E
:10509000E561070057530700E1B8070057530700C1
:1050A000575307005753070057530700575307003C
:1050B000575307005753070000000000000000008E
:1050C000575307005753070057530700575307001C
:1050D0009194070057530700575307000000000042
:1050E00000000000000000000000000000000000C0
:1050F00000000000000000000000000000000000B0
:10510000000000000000000000000000000000009F
:10511000000000000000000000000000000000008F
:10512000000000000000000000000000000000007F
:10513000000000000000000000000000000000006F
:10514000000000000000000000000000000000005F
:10515000000000000000000000000000000000004F
:10516000000000000000000000000000000000003F
:10517000000000000000000000000000000000002F
:10518000000000000000000000000000000000001F
:10519000000000000000000000000000000000000F
:1051A00000000000000000000000000000000000FF
:1051B00000000000000000000000000000000000EF
:1051C00000000000000000000000000000000000DF
:1051D00000000000000000000000000000000000CF
:1051E00000000000000000000000000000000000BF
:1051F00000000000000000000000000000000000AF
:10520000314932480A1A02D0072291438D4630496B
:1052100030480A1A06D00722914381F309880222F6
:1052200082F314882C482D492D4A00F03CF82D4873
:105230002D492E4A00F037F82D482E492E4A00F00D
:1052400032F82E482E492F4A00F02DF82E482F49CB
:105250002F4A00F028F82F482F49304A00F023F851
:105260002F483049304A00F01EF8304830490022BB
:1052700000F024F82F483049002200F01FF82F4A90
:1052800090471F481F49884205D00268043003B484
:10529000904703BCF7E700208646EC46002000213B
:1052A000274A9047FEE7884207D0521A05D0037874
:1052B00001300B700131013AF9D17047884202D0B8
:1052C00002700130FAE770470000012000F800206A
:1052D000000001200000012070D2070014600020AF
:1052E00068600020BC530700BC530700F8CA0700E1
:1052F00070D20700146000201460002080CB0700EB
:1053000080CB070080CB070080CB070080CB070055
:1053100080CB070080CB070080CB070070D207004E
:10532000C4D2070068600020686000206860002028
:10533000E4A10020E4A10020E4A10020855307009F
:10534000A57D0700FEE7FEE7FEE7FEE7FEE7FEE7D6
:10535000FEE7FEE7FEE7FEE7704700BF1048804724
:1053600010484FF00701884385460F4880470F4893
:10537000016841F470010160BFF34F8FBFF36F8F7D
:10538000FFF73EBF0A480B490B4A884207D0521A22
:1053900005D0037801300B700131013AF9D1704723
:1053A0005953070000000120CD98070088ED00E068
:0C53B0006CCB070000600020146000209F
:1053BC0030B54C1CE40012F00303A4B20ED1084D1E
:1053CC002A602244074C2260074A1370074A137064
:1053DC00074A1080074A1846118030BD0720FCE7A9
:1053EC00706000206C6000206860002078600020F5
:1053FC0074600020766000202DE9F3472B4D2B883C
:10540C008B4206460C4617464CD34FF000080DF164
:10541C0007008DF8078000F087F8254B254A18788F
:10542C001178CBB2244909888B4238BF0133C0B202
:10543C0038BF5FFA83F840452ED092F8008013787D
:10544C00DBB2994286BF0133DBB2002313709DF8A7
:10545C00070000F08DF84FF6FF73984524D0DFF865
:10546C0060A0DAF800304FEAC80903EB090243F8F0
:10547C003870A6B19CB1114B28881B68224608FBDA
:10548C000030314606F0DEFEDAF800304B440020E6
:10549C009C8002B0BDE8F0874FF6FF78D7E700207C
:1054AC009080F6E70920F4E70420F2E7746000200E
:1054BC007860002068600020766000206C6000201E
:1054CC0070600020F8B5124C124D264622782B78CD
:1054DC009A4200D1F8BD23780F48104A0788126809
:1054EC000F48DBB219B202EBC10C006852F8312044
:1054FC00BCF8041003FB070090470A4A2378128873
:10550C00DBB29A4286BF0133DBB200233370DDE796
:10551C0078600020686000207460002070600020BB
:10552C006C6000207660002070B5EFF3108672B6C8
:10553C000C4A946801239CB993600B4B0B4DD3F828
:10554C00801029401160C3F88050D3F8841051604A
:10555C004FF0FF32C3F88420047006B962B670BDF8
:10556C000370FAE77C60002000E100E0FC06FFBD60
:10557C00084B9A6810B55AB150B9EFF3108172B656
:10558C00054A1C6814605C685460986001B962B686
:10559C0010BD00BF7C60002000E100E030B53AB1E6
:1055AC001368DB430B4C0144884204D1D84330BD13
:1055BC004FF0FF33F6E710F8012B5340082213F09D
:1055CC00010F14BF25460025013A85EA5303F6D195
:1055DC00EAE700BF2083B8ED10B561B1B2FBF3F47C
:1055EC0003FB1424A4B244B9C0E900148460828182
:1055FC00C381204610BD0E20FCE70920FAE782B0DB
:10560C0050E8022FC188B2EB324F4FF0000317BFA6
:10561C0092B241EA014142EA014104E04268B2EB34
:10562C00324F08BF012340E80212002AE8D18DF85E
:10563C0007309DF80730002B0CBF1120002002B062
:10564C00704737B550E8013F9DB2C4892544848921
:10565C00A54228BF2D1B0489A54202BFBFF32F8F83
:10566C00002207E0C5EA030540E80154002CE9D10B
:10567C004FF001028DF803200193019B9DF803204C
:10568C000B6002F0FF0322B10B880068184403B0D2
:10569C0030BD1846FBE70A884B889A4209D150E87E
:1056AC00012FC2EA024240E80123002BF7D101206E
:1056BC0070470020704737B550E8023F1FFAA3F53A
:1056CC00C488A54202BFBFF32F8F00220DE0C4890E
:1056DC0025448489A54228BF2D1BC3EA054540E813
:1056EC000254002CE8D14FF001028DF803200193F5
:1056FC00019B9DF803200B6002F0FF0322B14B8845
:10570C000068184403B030BD1846FBE70A884B8884
:10571C009A4209D150E8022FC2EA224240E8022301
:10572C00002BF7D1012070470020704750E8002F64
:10573C0042EA010340E8003C9CF0000FF6D1104611
:10574C00704750E8003F03EA010240E8002C9CF04F
:10575C00000FF6D1104670470121FFF7E7BF00217B
:10576C00FFF7EFBF10B590B1D0E9012301689B1A88
:10577C00DBB20A60013BDBB2FF2B026802D10020D6
:10578C00107110BD11684C1C14600B70F2E70E20E8
:10579C00F7E737B5054600240DF107008DF80740F3
:1057AC00FFF7C2FE2A686B68116899420ED9481E31
:1057BC00106011F8014CEB68298A01FB0434AB68CA
:1057CC0011791B1ADBB2994238BF13719DF807008F
:1057DC00FFF7CEFE204603B030BD37B5054600239B
:1057EC000DF107000C468DF80730FFF79DFE2A6877
:1057FC001368591C1160E968641A298AB4FBF1F426
:10580C001C709DF80700FFF7B3FE03B030BD0160BC
:10581C000B681146184710B40468E468A4465DF898
:10582C00044B604710B404682469A4465DF8044B2B
:10583C006047000070B508B10368ABB90C4D0D4C56
:10584C000026641B1423B4FBF3F4B44201D10020F2
:10585C0009E02B6813B901361435F6E7DB692846E5
:10586C0098470028F7D070BDDB69BDE87040184739
:10587C000060002014600020014B43600020704742
:10588C0080CB07000846704700207047024B186811
:10589C00003018BF012070478860002008B502480E
:1058AC00FFF75DFF002008BD8860002008B510469A
:1058BC001A4606F0C7FC002008BD00002DE9F04197
:1058CC00804686B013480E4615461F46FFF744FF28
:1058DC00044630B111200EE006EB043001F05AFB07
:1058EC000134A542F8D10B48FFF739FFD8F808303E
:1058FC0000241BB9184606B0BDE8F08102226846A8
:10590C008DF80020CDE90146CDE903450597984770
:10591C002046F0E7886000202DE9F041804686B0F3
:10592C0012480F4616461D46FFF716FF0446D8B917
:10593C00AA083146384601F045FB0C48FFF70FFF2B
:10594C00D8F808301BB9184606B0BDE8F081012222
:10595C008DF800200C9A05926846CDE90147CDE9F7
:10596C00036598472046EFE71120EDE7886000209B
:10597C0029DF704728DF704770B503689D6886B0D3
:10598C0004460E466DB114220021684606F083FCD5
:10599C00A3680593237901962BB1012B0DD0684692
:1059AC00A84706B070BD01238DF80030236902931F
:1059BC00E368039363690493F1E702238DF80030E5
:1059CC00E3681B030293F5E7084670470020704715
:1059DC00024B187A003018BF012070477862002003
:1059EC00034B187A0122B0FA80F05A7440097047C0
:1059FC007862002008B510461A4606F023FC0020F9
:105A0C0008BD000008B514220021044806F043FC30
:105A1C000348FFF7F4FD002008BD00BF78620020AA
:105A2C006862002010B5094C094B43602046FFF713
:105A3C0093FE48B905F034FF1C2320744FF4EE722A
:105A4C0004490548FFF7C8FD002010BD786200200E
:105A5C00ACCB07008C6000206862002070B5234D31
:105A6C00234E2B7A2C463BB922492348FFF723FEC1
:105A7C00306008B9686070BD0223237233681A79EC
:105A8C0072B1012A22D018460321FFF775FF0023BB
:105A9C002372636017491848BDE87040FFF736BEA3
:105AAC00D3E90520121A142A28BF1422D3E90315AE
:105ABC009208012A014438BF01222844FFF758FFFD
:105ACC0050B11128DFD101232372D4E7D3E90302AB
:105ADC001044FFF74FFFF3E7237C002BCBD101469B
:105AEC00BDE87040022000F009B800BF78620020C9
:105AFC00906200208C6200206862002038B5831E02
:105B0C00012B43D8224C237A002B3FD0022B09D1F6
:105B1C0003282ED01F4B1B680022E2601A793AB181
:105B2C00012A20D0637C6BBBBDE83840FFF796BFE1
:105B3C00D3E905128D1A142D94BF521914329A619F
:105B4C009142EFD102284FF0000308BF194623728F
:105B5C00104B18BF0D211868FFF70EFF0E490F48A8
:105B6C00FFF7D4FDDEE71A6901321A615B699A42CC
:105B7C00E7E7E3680133082B01D8E360D2E70023A1
:105B8C00E360DFE7BDE8384005F07ABE38BD00BF02
:105B9C0078620020906200208C62002068620020F5
:105BAC0000F0FD03012B08D1044B00225A74421E55
:105BBC00504250411874FFF751BF70477862002073
:105BCC0010B5064C201DFFF7C7FD28B9637C1BB927
:105BDC00BDE81040FFF742BF10BD00BF7862002047
:105BEC002DE9F34180460D460F4801A916461F4684
:105BFC00FFF727FD0446A8B11C22002106F04BFB41
:105C0C002D0B0123237101A9C4F80080A760E56066
:105C1C0066610548FFF73FFDFFF7D2FF002002B099
:105C2C00BDE8F0810420FAE7686200202DE9F74313
:105C3C0081468846104801A917461E46FFF701FD0C
:105C4C000446B0B11C22002106F025FB00250A9B5E
:105C5C00A36001A92571C4F80090C4E903786661BA
:105C6C000548FFF718FDFFF7ABFF284603B0BDE86A
:105C7C00F0830420FAE700BF686200200B684A68D2
:105C8C004360934208BF0023016008BF4360704724
:105C9C00436843B10268916852680B449342436075
:105CAC0004BF0023436070472DE9F04FC9B008AA28
:105CBC0001F1400514464B780E781B0443EA066349
:105CCC00CE7833438E78043143EA06238D4244F870
:105CDC00043BF0D11024916B16464FEAF14383EA52
:105CEC00714383EA9123716A366852F8045F314438
:105CFC000B444FEAB54181EAF51181EAD501013433
:105D0C000B44402CD363E6D1D0E914E30093836DAC
:105D1C000193C36D0293036E0393436E0493836EDE
:105D2C000593C36E0693DDE9057BDDE9031CDDE914
:105D3C0001592B4B009E079374464FF00008079BAC
:105D4C0053F8042B07934FEAF12383EAB11383EA48
:105D5C00716A08AB53F828301A440AEB020327EA9D
:105D6C00010A01EA0C028AEA02021A444FEA743A66
:105D7C0086EA05035A448AEAB40A06EA050B23406C
:105D8C0083EA0B038AEAB45A08F101089A44B8F181
:105D9C00400F02EB0903BB465244A94619D1724489
:105DAC000265009A22444265019A32448265029A45
:105DBC002A44C265039A1A44049B02660B44436648
:105DCC00059B63448366069B3B44C36649B0BDE8B0
:105DDC00F08F674635468C46264619461446AEE784
:105DEC00D8CB070030B5E0B10F4A1049002400258C
:105DFC00C0E91245C0E914120D4C0E4A0E4DC0E913
:105E0C0016420E4AC0E918520D4A826602F17452CB
:105E1C00A2F523020023A2F692420364C26618463E
:105E2C0030BD0E20FCE700BF85AE67BB67E6096A94
:105E3C0072F36E3C3AF54FA57F520E518C68059B60
:105E4C00ABD9831FF8B50446F0B10AB90020F8BDF0
:105E5C00D1B10D468E180027B542F7D0236C15F83A
:105E6C00012BE2540133402B2364F5D1214620460B
:105E7C00FFF71AFFD4E9123113F5007341F1000159
:105E8C00C4E912312764E7E70E20E0E770B50D4650
:105E9C0016460446002877D0002975D0026C802164
:105EAC00372A02F1010381544FF0000242D8382BFB
:105EBC003BD1D4E91223206C0821E1FB00231046CE
:105ECC0012BAE2631A0A194684F83B3084F83A2075
:105EDC001A0C1B0EC4E9120184F83920214684F8EF
:105EEC0038302046FFF7E0FE691E76B30023E26EE1
:105EFC00DA4001F8012FA26EDA400A71626EDA40C4
:105F0C000A72226EDA400A73E26DDA400A74A26DEC
:105F1C00DA400A75626DDA400A76226DDA4008338F
:105F2C00202B0A77E3D1002070BDE2540133BEE789
:105F3C00E25401333F2BFBD921462046FFF7B4FE38
:105F4C003822002106F0A7F9B3E71823226DDA40B6
:105F5C0001F8012F626DDA400A71A26DDA400A7203
:105F6C00E26DDA400A73226EDA400A74626EDA402D
:105F7C000A75A26EDA400A76E26EDA40083B13F13B
:105F8C00080F0A77E2D1CEE70E20CDE7F0B578B353
:105F9C0071B36BB300241C600A44DB274FF0DC0C9C
:105FAC004FF0DD0E1C688A4204F1010500EB04067B
:105FBC0004D11D60C02333700020F0BD0E78C02EBC
:105FCC0005D0DB2E0CD01D600D78055506E01D604C
:105FDC0007551C68651C1D6000F804C00131E1E721
:105FEC001D6006551C68651C1D6000F804E0F5E793
:105FFC000E20E2E710B590B3D0E902239A4230D0DC
:10600C000478012C11D063B21BB1022C21D01120C9
:10601C0012E0C02927D0DB2902D101230370F6E757
:10602C004368541C84609954F1E7DC2905D0DD29C0
:10603C000AD0022303700B2010BD511C43688160F1
:10604C00C02199540023E9E7511C81604368DB218E
:10605C00F7E7C029DBD1002303708360D7E70E205C
:10606C00EAE70420E8E71846E6E70000094A537817
:10607C0091780133DBB2994208BF00231178994221
:10608C001FBF03705078182303FB002014BF04308B
:10609C00002070479462002073B5054600240DF172
:1060AC0007000E468DF80740FFF73EFA0DF106008B
:1060BC00FFF7DCFF90B10670094B9DF80620456098
:1060CC005A709DF80700FFF753FA24B9054B4FF4AB
:1060DC008012C3F80021204602B070BD0424F0E702
:1060EC009462002000E100E0024B4FF43C6043F06E
:1060FC0001031847E0CC070038B50C4B0C4C4FF49F
:10610C000032C3F8802001254FF48033C4F84833A3
:10611C00C4F808336560FFF7E7FF064BA560002461
:10612C001C60FFF7E1FF044B1C7038BD00E100E080
:10613C00001001404064002031640020F8B51F4B72
:10614C001F491B680025C1F84051C1F84451C1F8E2
:10615C004851C1F84C51C1F80051C1F804514BB32E
:10616C00D1F8044517490968641A24F07F442F4676
:10617C001A68A24209D8A41A15441A7CDE691AB10D
:10618C001F74D3E905209047AEB90F4A0F4B117815
:10619C001B788B4205D10133DBB2022B08BF0023E5
:1061AC00137012780A4B43F822500A4B4FF48012AA
:1061BC00C3F80021F8BD3346DAE700BF4464002081
:1061CC0000100140406400203D6400203C6400202D
:1061DC003464002000E100E02DE9F04FA04AA14911
:1061EC0013780978A04D994285B03CD00133DBB2CD
:1061FC00022B08BF002313709C4912789C4B0F682C
:10620C0053F822003B1823F07F4300220B602B68CD
:10621C0016461446944613B942B12B6006E0196831
:10622C0081420ED902B12B60091A19604FF0010896
:10623C002B68DFF844A201930027BEB9DFF840B207
:10624C0066E0401A0C44D968C3F800C0D3F81CE0CF
:10625C0031B13A1922F07F42C3E90121DE611E46B9
:10626C0001227346D7E70026B046E1E73446F669CB
:10627C007E4A63681268DFF80CC2A068991A21F094
:10628C007F41614500F2A580014421600122227406
:10629C002A680023C4E90133E361002A40F0A2809C
:1062AC002C60CAE75A1C9BF80210D2B291428BF8B0
:1062BC00002004BF00228BF80020182202FB03B33D
:1062CC001A799C68022A1CD0032A12D0012A1FD1E9
:1062DC00207CE8B9D3E90312A2605A69E2609A699A
:1062EC00644BA2611B78002B0CBF0B46034663600A
:1062FC00BEE700222B681146002B66D142B12B6001
:10630C0006E029680A468946002A59D100232374DD
:10631C009BF800309BF801209A42C3D12B682FB90F
:10632C00019A9A4202D1B8F1000F43D0002B73D0DE
:10633C00D3F800A0504D4D4BD5F804751C68DFF810
:10634C0048813E1B98F8003026F07F4603369BB9F7
:10635C004FF48033C5F84433C5F80433474B4FF43E
:10636C0000324FF00109C3F880211A60C5F8009083
:10637C00FFF7BAFE88F80090B2452CBF5444A4191C
:10638C0024F07F44C5F84045D5F80435DB1B23F0D9
:10639C007F43E41B033324F07F44A3420AD9D5F88E
:1063AC000435C5F84035FFF79FFE344B4FF40032EF
:1063BC00C3F800212F4B00221A7005B0BDE8F08FF6
:1063CC0094422CD09146D2699EE719740122DB6964
:1063DC0092E7D31A23F07F43834234BFC31A0023BE
:1063EC00236053E721681368994213D8591A116036
:1063FC00E26155E7091AD8691A4638B1034618689C
:10640C008842F7D3401A1860184613462160E061A1
:10641C00DC6112E71346F2E7FFF76EFECAE74C4564
:10642C0011D1CB692B6073B9DFF840E00120CDE9C5
:10643C000212CAF80800CEF800300E4B1870FFF7A5
:10644C0053FEDDE902121368D269C9F81C2012B19F
:10645C001068034413602B68994218BF012755E755
:10646C003C6400203D640020446400204064002013
:10647C0034640020306400200010014000E100E092
:10648C0094620020FEFF7F003164002008B5FFF706
:10649C0033FE104B0020112218809A700E4B18609E
:1064AC000E4B18700E4B18700E4B4FF48012C0210F
:1064BC00C3F8802183F814131A6002F18042A2F50C
:1064CC006F22C2F8080583F81113074BD2F8042584
:1064DC001A6008BD94620020446400203C640020D3
:1064EC003D64002000E100E040640020074B9B78F5
:1064FC004BB132B128B10368187C20B959745A6178
:10650C007047072070470820704700BF9462002036
:10651C002DE9F7431E4FBB7805460E469046A3B3B4
:10652C0098B304292FD943697BB3437C0024012BF6
:10653C000DF107000CBF8946A1468DF80740FEF708
:10654C00F3FF0DF10600FFF791FDD0B101230370AD
:10655C00104B4560D3F80435C0E90498C0E9023605
:10656C009DF806307B709DF80700FFF701F824B901
:10657C00094B4FF48012C3F80021204603B0BDE84C
:10658C00F0830424EFE70724F7E70824F5E700BFBE
:10659C00946200200010014000E100E0064A92786D
:1065AC003AB130B1426922B1002202740221FFF7E4
:1065BC0073BD0820704700BF9462002043689B683D
:1065CC00184708B5436808305A7901F0F0F80020F4
:1065DC0008BD2DE9F0430D469BB008469946904600
:1065EC00FFF7ECFF6E6874794C4528BF4C460746A4
:1065FC002246414602A801F0CFF8727922990AA8E6
:10660C0001F0D5F800970AAB224602A905F1080063
:10661C0002F0BEFB002848F2425018BF00201BB00D
:10662C00BDE8F0830023C0E902328B881A44B1F92B
:10663C00063002611A44C0E900114261088800303A
:10664C0018BF012070474268118838B503460029ED
:10665C0037D0148A02F1100141602CB9C26801686C
:10666C00FFF7E0FF204638BD9078118900F0300527
:10667C00302D14D1947C04F03004302C1BD1908834
:10668C001969091A19610021908AB2F91620084477
:10669C00196901441961114459610120E3E700F0C3
:1066AC00F004202C07D150894143002DECD198687F
:1066BC0001309860E8E700F0C000802808BF042192
:1066CC00F3E70846CFE770B5456804460E466368A5
:1066DC001A88B24204D19B7803F00F03082B07D120
:1066EC002046FFF7B0FF6368AB42F0D1002070BDCD
:1066FC000120FCE743681A44426011B101399A4207
:10670C0001D10120704713F8010B01F8010FF6E7D6
:10671C0070B54568AA7802F00F06082E86B00346BD
:10672C001FD103691C6800260CB906B070BD236824
:10673C0062689D68267329466846FFF773FF636895
:10674C00049304F10C030593AB7803F0C003802B86
:10675C0008BF231D684608BF0493FFF7D9FFA46840
:10676C00E2E712F0C0011CD102F0300010280AD16F
:10677C005A691170072EEC68186909D10146204638
:10678C0000F017F8D1E79006F4D55B691980CCE7D7
:10679C002A89214614B105F055FDC6E705F07BFDAD
:1067AC00C3E78029C1D10069002192060160BCD5E4
:1067BC00EBE77FB50A4601466846FFF733FF30B179
:1067CC006846FFF7A5FF6846FFF73DFFF7E707B000
:1067DC005DF804FB10B5036801220446984710B11C
:1067EC00A368013BA36010BD83682DE9F341074604
:1067FC00884623B90026304602B0BDE8F0810DF181
:10680C000701FFF7E7FF06460028F3D09DF8074085
:10681C00220616D504F07F040725BB68002BE9D0AF
:10682C000DF107013846FFF7D5FF0028E2D09DF89F
:10683C00072002F07F03AB401C43130605F107054C
:10684C0002D4C8F80040D6E7232DE6D1D2E70000E9
:10685C0030B5044685B01546A9B90268114B9A4269
:10686C0011D0102D06D82A4669462046FFF7F0FFB6
:10687C0005B030BD102269462046FFF7E9FF00281D
:10688C00F6D0103DEDE7A368AB4201D20020EFE754
:10689C0023682A46204698470028F7D0A3685D1B3A
:1068AC00A560E5E701670700F7B50E4601A90746A5
:1068BC001546FFF799FFA8B1019A0123D3184FF0A1
:1068CC00000404D2B17801F0C001802901D1204626
:1068DC0008E031899942FAD329463846FFF7B8FFC8
:1068EC00019BEC5403B0F0BD73B50E4601A90546EF
:1068FC001446FFF779FFB8B1019BB3F5803F07D27F
:10690C0002229A1804D2B17801F0C001802901D179
:10691C00002009E031899142FAD321461A4621F828
:10692C00023B2846FFF794FF02B070BD10B5034C34
:10693C0082600022C0E90041C26010BD01670700FF
:10694C002DE9F347002580460F462E462C46D8F8F5
:10695C00083023B30DF107014046FFF73BFFF0B1C0
:10696C009DF807C00CF07F025FFA82F9A4F12003B6
:10697C00C4F1200109FA03F329FA01F109FA04F22E
:10698C000B431CF0800F45EA020546EA030604F1AE
:10699C00070402D1C7E9005602E0462CD7D10020EB
:1069AC0002B0BDE8F08773B50C4669461646FFF792
:1069BC00C7FF68B12389082B0CD1DDE90045C6E976
:1069CC000045DDE90023AB4206BFA24201200020B6
:1069DC0002B070BD042B04D1009B33601C46002513
:1069EC00EFE7022B4FF0000004D1009B33809CB2E8
:1069FC000546E6E7012BEBD1009B337003F0FF0457
:106A0C00F6E737B50D4669461446FFF799FF30B1E6
:106A1C002A89082ADDE9003103D1C4E9003103B029
:106A2C0030BD042A18464FEAE37108D123601A4698
:106A3C000B468B4206BF824201200020EFE7022A60
:106A4C0004D11BB223801AB2D317F2E7012A03D167
:106A5C005BB223705AB2F7E70020E0E7F7B50C46BB
:106A6C00002119702170116001A9074615461E46B8
:106A7C00FFF7BAFE30B9BB6813B90123337000209D
:106A8C0003B0F0BD01990029F7D0CB0801F0070144
:106A9C002B602170F4E713B5044605291FD8DFE8F5
:106AAC0001F0030F151E1E1C012201A92046FFF741
:106ABC00CFFE18B19DF90430002BF5DB02B010BDF0
:106ACC00082200212046FFF7C3FEF7E701A9FFF7D4
:106ADC008BFE0028F2D0019AF3E70422F1E70020A4
:106AEC00ECE773B50D4601A90446FFF77DFE06469B
:106AFC0018B90026304602B070BD94E80F0085E846
:106B0C000F0001998A42F4D3A960A3685B1AA360B1
:106B1C00F0E700002DE9F0435568AB7813F0C004A2
:106B2C0089B006468C46174603D0402C67D000240B
:106B3C000AE003F00F025D4903F03003102B51F80B
:106B4C0022801BD004D8E3B1204609B0BDE8F08305
:106B5C00202B1BD0302BF7D17B6929881980072A71
:106B6C0009D121462A89386905F095FB7B6839697A
:106B7C00D868FFF71EFE3A6979683EE07B6901220E
:106B8C001A703A692946C0470446DDE7BCF1020F8A
:106B9C00D7F8149024D1042A22D804A9FFF7A1FF16
:106BAC0004460028C3D0069B2BB17968B9F8003095
:106BBC004A899A4205D8059B7360069B002BC3D06B
:106BCC00B5E708893A6903FB002204A8C04728B13D
:106BDC00B9F800300133A9F80030E4E70446EAE7DD
:106BEC00B9F800306A899A42A1D929893A69581CA6
:106BFC0003FB0122A9F8000029463046C3E7D2F86E
:106C0C001080454655F8043B13B9FFF744FFBBE72A
:106C1C00022914D104A9FFF764FF002887D0D8F803
:106C2C00003079682A4604A89847044600283FF4A7
:106C3C007EAF069B002BF2D1059B736084E7012984
:106C4C002BD04CB24CB105297FF471AF04220DEB63
:106C5C000201FFF7FDFD042424E00DF104090134C9
:106C6C000B2C3FF464AF012249463046FFF7F0FD90
:106C7C0000283FF45CAF19F9013B002BEFDB0C4B08
:106C8C00049301ABCDE90534002307932A46D8F8C9
:106C9C000030796804A8984776E7082201A9FFF725
:106CAC00D7FD08240028EAD141E700BFF4CC070047
:106CBC00016707002DE9F04F91B00446002604A8A7
:106CCC00CDE90266FFF7AEFCA3683BBBDDE90534FA
:106CDC0004A89D78FFF7B7FC0028F7D115F0300F0A
:106CEC0003D1059B1B8803B10134002C00F0A98053
:106CFC006309002202A9934240F09C8010AA02EB87
:106D0C00830304F01F04C4F120044FF0FF3053F848
:106D1C00383CE040C31A584258410DE00DF10303D2
:106D2C0001AA0DF102012046FFF798FE38B99DF833
:106D3C000330002BCAD1002011B0BDE8F08F0199AF
:106D4C0004A8FFF7C0FC002850D1019BB3427DD3AF
:106D5C00059D059A937803F00F03082B7FD004A8A8
:106D6C00FFF771FC059B9D42F3D14FF0FF36019F5D
:106D7C00B7426BD3089B9DF80290D4F808801D682D
:106D8C004FF0010AA368002D5DD098459CD12B686B
:106D9C00D3F800B0BBF1000F08D04B463A46294659
:106DAC002046D8470028C6D0AD68EBE7D3F808B02A
:106DBC00BBF800309F42F7D16A6859460AA8FFF722
:106DCC0031FC6B680E9305F10C030F939BF80230AA
:106DDC0003F0C003802B04BF2B1D0E930AAA85F869
:106DEC000CA049462046FFF795FEDBE7059B9B78F8
:106DFC0013F0300F0FD1069A3F2A0CD8510910AB63
:106E0C0003EB810102F01F020123934051F8382C4F
:106E1C00134341F8383CE5682DB104AB9DF80220D2
:106E2C0001992046A84704AA9DF802102046FFF7B6
:106E3C0071FE10E051F8225001357FF47DAF013224
:106E4C0059E7012078E798457FF43EAF9DF8021092
:106E5C002046FFF720FE00287FF436AF6BE716883C
:106E6C0085E770B50C460646154611462046FFF7D9
:106E7C00A0FC2A4621463046BDE87040FFF71ABFF9
:106E8C00F0B585B00C46CD68694607461646FFF747
:106E9C0028FE68B1E06858B1A37803F03003202BCA
:106EAC0032462946684605D1FFF7DBFF019B7B6024
:106EBC0005B0F0BDFFF7FEFEF8E7D3B50C4669460A
:106ECC00FFF73EFD80B1DDE9001300274A0801F011
:106EDC00010642EAC37256EA07014FEA53031CBF8C
:106EEC00D243DB43C4E9002302B0D0BD37B50D4615
:106EFC0069461446FFF7E1FF68B12B89082B0CD1CA
:106F0C00DDE90001C4E90001DDE900238B4206BF85
:106F1C0082420120002003B030BD042B03D1009825
:106F2C002060C117F0E7022B04D1BDF900002080CE
:106F3C0000B2F6E7012B04D19DF90000207040B29D
:106F4C00EFE70020E7E713B504220C460DEB020136
:106F5C00FFF77EFC08B1019B236002B010BD114607
:106F6C00FFF7F1BF13B508220C466946FFF770FC1A
:106F7C0018B1DDE90023C4E9002302B010BD1146AD
:106F8C00FFF7F0BF024AD2F80034002BFBD0704759
:106F9C0000E001400A4908B50223C1F80435BFF3EB
:106FAC006F8FBFF34F8FC1F80805FFF7EBFF00237E
:106FBC00C1F80435BFF36F8FBFF34F8F08BD00BF0F
:106FCC0000E001400E4B10B50124C3F80445BFF39B
:106FDC006F8FBFF34F8F01EB8204401AA14208D18F
:106FEC00074B0022C3F80425BFF36F8FBFF34F8FFD
:106FFC0010BD431851F8042B1A60FFF7C3FFEDE7DF
:10700C0000E00140014B1B68184700BF486400209A
:10701C000E4B984237B50D4602D0002003B030BD60
:10702C0000230DF107008DF80730FEF77DFA084BB1
:10703C001C7914B901221D601A719DF80700FEF726
:10704C0097FA002CE9D01120E8E700BF002000409F
:10705C0048640020034B984201BF034B00221A6086
:10706C001A717047002000404864002000234350F0
:10707C0082B043580193019B02B070471FB50123A6
:10708C008DF80030044BCDE90110D3E900126846AD
:10709C00904705B05DF804FB506400207FB5374A7B
:1070AC00D2F82461002E48D010464FF49271FFF7AD
:1070BC00DDFF02238DF80030D2F88034C2F8803422
:1070CC000393D2F83C3502932D4BDA6801920022DF
:1070DC00C3E906226846D3E900129047274AD2F842
:1070EC0044317BB14FF4A2711046FFF7BFFF244B24
:1070FC00996939B10021C3E90611D968D2F83C0568
:10710C00FFF7BCFF1D4AD2F82031A3B14FF49071A8
:10711C001046FFF7ABFF1A4B596961B1D2F84C1509
:10712C000291002299688DF8002001915A616846FD
:10713C00D3E90012904704B070BDD2F81031002B87
:10714C00CCD04FF488711046FFF790FF0C4BD2F85F
:10715C003C0599698842C1D1DC69D96864B1D2F81F
:10716C00005225F02005C2F800521A699C61DA60C1
:10717C00DE61FFF783FFB1E79C61FAE70020004076
:10718C00506400202DE9F8435A4F06799146242289
:10719C0002FB0672044692F820200D46002A40F0AD
:1071AC00A28055490068FFF733FF8046002840F065
:1071BC009D8029682368481C0BD04FF0A040012209
:1071CC008A40C0F8082501F5E0724FF0030C40F836
:1071DC0022C06868421C1FBF00F5E0724FF0A04C43
:1071EC004FF0000E4CF822E0AA6995F814C0C3F8D1
:1071FC0024256A7DBCF1010F4CEA0202C3F86C2510
:10720C00C3F80C15C3F814051DD1AA68511C1FBF77
:10721C0002F5E0714FF0A0404FF0000C40F821C097
:10722C00E968481C0BD04FF0A04C01208840CCF8EA
:10723C00080501F5E0704FF0030E4CF820E0C3F8A0
:10724C000815C3F8102524237343FA18C2F80490C8
:10725C002A69FA50B9F1000F34D04FF488712068C4
:10726C002D7FFFF703FF4FF490712068FFF7FEFEB0
:10727C004FF492712068FFF7F9FE20684FF4A27169
:10728C00FFF7F4FE22681D4BC2F80433120B51B207
:10729C000029A8BF01F160404FEA4513BABF184856
:1072AC0002F00F0500F56140DBB2B4BF435580F826
:1072BC00003302F01F02012303FA02F24909114BB9
:1072CC0043F8212023680822C3F80025242303FB5C
:1072DC0006730022C3E906225A61012283F820209A
:1072EC004046BDE8F8834FF00808F9E74FF0110865
:1072FC00F6E700BF50640020A970070010030200DD
:10730C0014ED00E000E100E0F8B5047900682D4DC3
:10731C000023C0F80035242303FB04535B6873B1CE
:10732C00294BC0F80833020B53B201215B0902F060
:10733C001F0201FA02F22033244941F82320D0F82D
:10734C000C65D0F81415D0F80835D0F810254FF08E
:10735C00FF37BE42C0F80C7518BF06F5E076C0F8D2
:10736C001475C0F80875C0F810751EBF4FF0A04713
:10737C004FF0020C47F826C04E1C1FBF4FF0A04622
:10738C0001F5E071022746F82170511C1FBF4FF028
:10739C00A04102F5E072022641F822605A1C1FBF80
:1073AC0003F5E0734FF0A042022142F82310FFF7DF
:1073BC0051FE242303FB0454002384F82030636023
:1073CC00F8BD00BF506400201003020000E100E093
:1073DC0001F06043B3F1005F2DE9F041074632D173
:1073EC001C4B0679242505FB063598466C6964BB55
:1073FC006A61A96000684FF49071FFF737FE4FF493
:10740C00AC713868FFF732FE3B686A69A968C3F84B
:10741C004415C3F8482501229A606A68BAB9D3F8B2
:10742C002011D3F8582149B9002AF8D00F20242371
:10743C0003FB068600237361BDE8F081002A14BFAC
:10744C000F200020F3E71020F6E71120F4E7204688
:10745C00F2E700BF50640020F8B501F06043B3F1CF
:10746C00005F04460F465FD10379304D242101FBA8
:10747C000351486820B121684FF40476C1F80863C1
:10748C00242101FB03539E6956B1D96900293AD0D6
:10749C0020B123684FF40472C3F80423112031E0A7
:1074AC009A61DF60DE614FF488712068FFF7DEFDC2
:1074BC004FF4A2712068FFF7D9FD2368C3F8347527
:1074CC00C3F838251EBB01221A602179242202FB45
:1074DC000152526812BBD3F81001D3F84421D3F8EF
:1074EC002441104302D1002CF5D00246242303FB87
:1074FC00015500239C4214BF032018469A42AB61ED
:10750C0018BF0F20F8BD1F61DA610126CBE7D3F855
:10751C00002242F02002C3F80022D6E74FF4047296
:10752C00C3F804230020EDE71020EBE750640020A3
:10753C001FB503788DF800304368019383688DF88C
:10754C000830C3680393054A054B684653F821304D
:10755C0052F82110984705B05DF804FB74640020C4
:10756C0078640020F0B506460F4B16F8047B43F800
:10757C0027200E4B94460C460A6943F827200FCC63
:10758C0089B06D460FC594E80F00BCF1000F85E87B
:10759C000F00074A049708BF002269463046FFF7E0
:1075AC00F1FD09B0F0BD00BF7864002074640020C8
:1075BC003D75070028B139B10023C1E900301846E8
:1075CC00704748F21050704748F21350704730B172
:1075DC00036848F240508B4208BF0020704748F2C5
:1075EC001050704728B148F21150914208BF00204A
:1075FC00704748F21050704770B506460C461D4651
:10760C00FFF7D8FF50B9B3794AB1AB420AD1114652
:10761C002046FEF7D6FF08B9044B236070BD48F234
:10762C001050FBE748F21150F8E700BF7052464D7E
:10763C002DE9F0470C4607460F492046154698465B
:10764C00DDE90869FFF7C3FF98B963685A794946C1
:10765C0052003046FFF7C6FF58B945B1089643466D
:10766C002A4621463846BDE8F047FEF7B2BF48F23D
:10767C001050BDE8F08700BF7052464D10B504465F
:10768C0038B149B141600B68984708B9044B236085
:10769C0010BD48F20150FBE748F21050F8E700BF6C
:1076AC006E524648F0B448B107680A4EB74209D149
:1076BC0059B16AB14368F0BC5B68184748F2015095
:1076CC00F0BC704748F20250FAE748F21050F7E766
:1076DC001046F5E76E524648F0B460B107680C4EA0
:1076EC00B7420CD171B143681568DC68A5420CD364
:1076FC009B68F0BC184748F20150F0BC704748F248
:10770C000250FAE748F21350F7E748F21450F4E746
:10771C006E5246482DE9F041044617469846DDE97D
:10772C000656FFF7ABFF60B9424639462046FFF7D5
:10773C00B9FF30B9324629462046BDE8F041FFF783
:10774C00CBBFBDE8F0810000F8B50A4F0A4C0B4DD9
:10775C00E41B0121E40829700026A64203D1022370
:10776C002B700020F8BD57F8363098470028F9D117
:10777C000136F2E7F8CA0700F8CA07007C6400205B
:10778C0001390144814200D2704703780A7800F82D
:10779C00012B01F80139F5E7013A02440139824223
:1077AC0000D2704711F8013F02F80139F7E770B5C4
:1077BC0016460D46FFF7F0FF3246A9193044BDE8D6
:1077CC007040FFF7E9BF38B50D460446FFF7D8FF08
:1077DC0029466019BDE83840FFF7D2BFBFF34F8F81
:1077EC000549064BCA6802F4E0621343CB60BFF351
:1077FC004F8F00BFFDE700BF00ED00E00400FA056D
:10780C00024A136801331360704700BF8064002084
:10781C0010B5094B01241C70FEF738FE2146074AAF
:10782C000748FEF763FE002240F6CD410548BDE84F
:10783C001040FEF76DBE00BF946700200D78070066
:10784C0088CE070074670020F0B50025461C8D42D9
:10785C0000DBF0BD435DA3F14104052C0ED8373B92
:10786C00DCB2735DA3F14107052F13D8373BDBB2B4
:10787C0043EA041302F8013B0235E8E7A3F1610483
:10788C00052C01D8573BEBE7303BDCB20A2C28BF68
:10789C000024E6E7A3F16107052F01D8573BE6E783
:1078AC00303BDBB20A2B28BF0023E1E738B5054D8E
:1078BC00044645F001054FF47A40A847013CFAD143
:1078CC0038BD00BF80CE0700034904484523012280
:1078DC000B70FFF77DBD00BF886400201C6000208A
:1078EC00034904484B2301220B70FFF771BD00BF05
:1078FC00886400201C60002038B5094C23780546AC
:10790C000BB9FFF785FF062D08D1237833B100237F
:10791C0023700448BDE83840FEF740BE38BD00BFB8
:10792C0094670020746700200EB4012317B503FA86
:10793C0000F00D4B1B68184211D000240DF1030010
:10794C008DF80340FDF7F0FD06AB01AA05990193F4
:10795C00204604F0EBF99DF80300FDF709FE03B097
:10796C00BDE8104003B07047146000202DE9FF41C2
:10797C000378012B16D1047A012C0ED1964B1A6880
:10798C00012A1D4611D0022A74D032B942681278ED
:10799C00572A02D11C60FFF7A3FF01228F499048A0
:1079AC00FFF75AFD04B0BDE8F08143681B78423BF9
:1079BC00162B5CD801A252F823F000BF2F7A0700D7
:1079CC007B7A0700697A07007B7A07007B7A0700CD
:1079DC007B7A07007B7A07007B7A07007B7A0700AB
:1079EC007B7A0700377A07007B7A07007B7A0700DF
:1079FC007B7A07007B7A07007B7A0700337A0700D3
:107A0C002B7A07007B7A07007B7A0700497A0700FC
:107A1C00A3790700257A070006232B60BBE7032315
:107A2C00FBE70423F9E70523F7E76E4B00930022ED
:107A3C006D4B6E491046FFF777FFAEE7694B01932C
:107A4C00694B00936A4A6B4B6B48802104F0D5FB61
:107A5C006949C2B26248FFF7BBFC9EE7674B002244
:107A6C001A60674B09221A6002232B6095E7FFF717
:107A7C002BFF92E7614940680A68624F531C0B6008
:107A8C000178B9545E4A1268934286D303AA08213E
:107A9C00781CFFF7D9FE04225B4903A804F072FBA3
:107AAC000246002840F094803B784FF01028452B7C
:107ABC00D8F8086266D14FF0FF3700973346534928
:107ACC00FFF732FFBE4256D0514E4FF4087241467A
:107ADC00304604F0B7FB4F4BC6F808721B6803B96D
:107AEC00FEE74D4B00221C6043F8102CA3F58A7363
:107AFC001B6803B9FEE70120FFF7D8FE474F484E3D
:107B0C004FF0102454F8043B013304D000223946C2
:107B1C001046FFF709FFB442F4D1424B0122C3F8DF
:107B2C000425D3F80024002AFBD0394A3D4C3C48AC
:107B3C004FF0102352F8041B4E1C04D01960D4F8DB
:107B4C0000140029FBD004338342F3D1354B0022BF
:107B5C00C3F80425D3F80024002AFBD04FF4087294
:107B6C004FF010212A4804F00DFB40B92E49002299
:107B7C001046FFF7D9FEFFF7B3FE012375E700228D
:107B8C002A49F5E7442B23D16FF0FF0300932849D2
:107B9C003346FFF7C9FE16F5807FECD0214BC3F8B6
:107BAC000445D3F80024002AFBD04FF010226FF0CC
:107BBC00FF01C2F80812D3F80024002AFBD00022DF
:107BCC00C3F80425174AD2F80034002BFBD0CDE7BC
:107BDC00FFF77AFED1E700BF7067002084640020B5
:107BEC001C60002098CE07008CCE0700B7CD070094
:107BFC00DCCD0700A1CE0700886400206867002058
:107C0C006C67002028670020A4CE0700E7CD070092
:107C1C000865002000E4014014E501400ACE07008D
:107C2C002012001000E0014022CE070043CE0700D6
:107C3C0056CE070070B54FF0A043042288B0C3F8AD
:107C4C0030270A2400261D460120FFF72FFED5F809
:107C5C001035D90448BF0136013CF5D14FF0A04393
:107C6C000222062EC3F830271ADD324E0FCE6D4697
:107C7C000FC596E80F0085E80F000E220C23CDE906
:107C8C00002369462C4A2D48FFF76CFC40B90122B1
:107C9C002B492C48FFF7E0FB28B12A48FFF734FBAF
:107CAC00204608B070BD284E0525344633689BBB72
:107CBC006420FFF7FBFD013DF8D12248FFF724FBC0
:107CCC00022D1BD0032D20D0012D4FF00004E7D145
:107CDC001E4B1C701E4B2C461D70E1E72268042ABB
:107CEC0006D0052A07D0032A1DD1236001251AE0EE
:107CFC002360022517E02360032514E0134B0124B5
:107D0C001C70134B00221A70CAE70022114910464E
:107D1C00FFF70AFEFFF762FD0F4B1B780BB9FFF75D
:107D2C0077FD002506232268062AD7D10A20FFF703
:107D3C00BDFDC2E718CD0700797907001860002057
:107D4C00846400201C6000207067002054600020B8
:107D5C00108D0020A6CD0700946700201FB50346A8
:107D6C007046CDE901200022009110460249FFF730
:107D7C00DBFDFFF733FD00BF38CD070007B5034629
:107D8C0072460092002203491046FFF7CDFDFFF723
:107D9C0025FD00BF7DCD07000022104610B54FF425
:107DAC00805101F085FA024608B1FFF7E7FF084859
:107DBC00C0F5FC2101F07CFA0028F6D1054801F051
:107DCC00A1F904460028F0D101F060FA204610BD5C
:107DDC0000500700057907001AB1013A8B5C8354F7
:107DEC00FAE7704710B5013AD2B253B2002B09DB57
:107DFC001BB250F8234051F823309C4204D8F2D2E5
:107E0C00FF2002E0002000E0012040B210BD000085
:107E1C0000000000C3F10803DB0070B50133044619
:107E2C00002003A55B1920C940CAAD1920C418470E
:107E3C0020C940CA754120C420C940CA754120C41C
:107E4C0020C940CA754120C420C940CA754120C40C
:107E5C0020C940CA754120C420C940CA754120C4FC
:107E6C0020C940CA754120C4404170BD00000000CB
:107E7C0000000000C3F10803DB0070B501330024DF
:107E8C0003A500BF5B1920C940CAAD1B20C0184711
:107E9C0020C940CAB54120C020C940CAB54120C044
:107EAC0020C940CAB54120C020C940CAB54120C034
:107EBC0020C940CAB54120C020C940CAB54120C024
:107ECC0020C940CAB54120C06441B4FA84F04009CD
:107EDC0070BD00BF2DE9F04F08B4F8CA04B451F8D6
:107EEC00042BA3FB028940F8048B4FF0000AE4FB3F
:107EFC00629A4FF0000BE5FB62AB4FF0000CE6FB17
:107F0C0062BC4FF0000EE7FB62CE51F8042B4FF031
:107F1C000008E3FB628940F8048BE4FB629AE5FB02
:107F2C0062ABE6FB62BCE7FB62CE51F8042B4FF070
:107F3C000008E3FB628940F8048BE4FB629AE5FBE2
:107F4C0062ABE6FB62BCE7FB62CE51F8042B4FF050
:107F5C000008E3FB628940F8048BE4FB629AE5FBC2
:107F6C0062ABE6FB62BCE7FB62CE51F8042B4FF030
:107F7C000008E3FB628940F8048BE4FB629AE5FBA2
:107F8C0062ABE6FB62BCE7FB62CE40F8049B40F8B8
:107F9C0004AB40F804BB40F804CB40F804EB0CBC39
:107FAC00052B00F01E810C68A0F11400A1F1140146
:107FBC00A2F1140252F804EB4FF0000550F8046BD8
:107FCC00E4FB6E5652F804EB50F8047BE4FB6E674E
:107FDC0052F804EB50F8048BE4FB6E7852F804EB87
:107FEC0050F8049BE4FB6E8952F804EB50F804AB98
:107FFC00E4FB6E9AA0F1140052F8044B51F804EB18
:10800C004FF0000CE4FB6EC540F804CB51F804EBC8
:10801C00E4FB6E5640F8045B51F804EBE4FB6E672E
:10802C0040F8046B51F804EBE4FB6E7840F8047BE9
:10803C0051F804EBE4FB6E8940F8048B51F804EB27
:10804C00E4FB6E9AA0E80006062B00F0CA800C68D0
:10805C00A0F11800A1F11801A2F1180252F804EBDA
:10806C004FF0000550F8046BE4FB6E5652F804EB2D
:10807C0050F8047BE4FB6E6752F804EB50F8048B69
:10808C00E4FB6E7852F804EB50F8049BE4FB6E8929
:10809C0052F804EB50F804ABE4FB6E9A52F804EB84
:1080AC0050F804BBE4FB6EABA0F1180052F8044B83
:1080BC0051F804EB4FF0000CE4FB6EC540F804CB18
:1080CC0051F804EBE4FB6E5640F8045B51F804EBFA
:1080DC00E4FB6E6740F8046B51F804EBE4FB6E783C
:1080EC0040F8047B51F804EBE4FB6E8940F8048BF8
:1080FC0051F804EBE4FB6E9A40F8049B51F804EB46
:10810C00E4FB6EABA0E8000C072B6AD008B40C683B
:10811C00A0F11C00A1F11C01A2F11C0252F804EB0D
:10812C004FF0000550F8046BE4FB6E5652F804EB6C
:10813C0050F8047BE4FB6E6752F804EB50F8048BA8
:10814C00E4FB6E7852F804EB50F8049BE4FB6E8968
:10815C0052F804EB50F804ABE4FB6E9A52F804EBC3
:10816C0050F804BBE4FB6EAB52F804EB50F804CBB4
:10817C00E4FB6EBCA0F11C0052F8044B51F804EB6C
:10818C004FF00003E4FB6E3540F8043B51F804EB70
:10819C00E4FB6E5640F8045B51F804EBE4FB6E67AD
:1081AC0040F8046B51F804EBE4FB6E7840F8047B68
:1081BC0051F804EBE4FB6E8940F8048B51F804EBA6
:1081CC00E4FB6E9A40F8049B51F804EBE4FB6EABB5
:1081DC0040F804AB51F804EBE4FB6EBCA0E80018CB
:1081EC0008BCBDE8F08F2DE9F04FB1E8005E06B495
:1081FC00AAFB09124FF00003EBFB69234FF00004BC
:10820C00ECFB69344FF00005EEFB69454FF00006BE
:10821C00EBFB6A63ECFB6A344918524176415B41D3
:10822C00A9FB09784FF0000949F1000918EB010886
:10823C00A0E88001AAFB0A78574158EB0608A0E891
:10824C008001EEFB6A454FF0000A4AF1000A4FF03C
:10825C000001ECFB6B14EEFB6B454FF00002EEFBE8
:10826C006C255FEA59094941644152416D4149F11C
:10827C000009EBFB6B3A1AEB010AA0E80804ACFB13
:10828C000C6A66415AEB020AA0E84004AEFB0E6A87
:10829C006E415AEB090AA0E8400406BC052A00F01E
:1082AC00E680A0F11400A1F11401B1E8E043A5FBB4
:1082BC000E344FF00005E6FB6E454FF00006E7FB71
:1082CC006E564FF00007E8FB6E674FF00008E9FBB5
:1082DC006E784FF00009DB1864416D4176417F41A7
:1082EC0058EB080859F1000950F804CB13EB0C03B8
:1082FC0050F804CB54EB0C0450F804CB55EB0C05A4
:10830C0050F804CB56EB0C0650F804CB57EB0C078B
:10831C0058F1000859F10009A0F11400EEFB0E8988
:10832C00A0E8F803062A00F0A280A0F11800A1F141
:10833C001801B1E8E047A5FB0E344FF00005E6FB51
:10834C006E454FF00006E7FB6E564FF00007E8FB5A
:10835C006E674FF00008E9FB6E784FF00009EAFBFE
:10836C006E894FF0000ADB1864416D4176417F4104
:10837C0058EB080859EB09095AF1000A50F804CBDC
:10838C0013EB0C0350F804CB54EB0C0450F804CB57
:10839C0055EB0C0550F804CB56EB0C0650F804CBFF
:1083AC0057EB0C0750F804CB58EB0C0859F10009AB
:1083BC005AF1000AA0F11800EEFB0E9AA0E8F8079B
:1083CC00072A54D0A0F11C00A1F11C01B1E8E04F28
:1083DC00A5FB0E344FF00005E6FB6E454FF0000692
:1083EC00E7FB6E564FF00007E8FB6E674FF0000896
:1083FC00E9FB6E784FF00009EAFB6E894FF0000A3A
:10840C00EBFB6E9A4FF0000BDB1864416D4176412B
:10841C007F4158EB080859EB09095AEB0A0A5BF142
:10842C00000B50F804CB13EB0C0350F804CB54EBBB
:10843C000C0450F804CB55EB0C0550F804CB56EB60
:10844C000C0650F804CB57EB0C0750F804CB58EB48
:10845C000C0850F804CB59EB0C095AF1000A5BF1EB
:10846C00000BA0F11C00EEFB0EABA0E8F80FBDE872
:10847C00F08F10B5002253B28B4205DA1BB20024E8
:10848C0040F823400132F6E710BD2DE9F04788464D
:10849C00B3F902101F460825CB1D202493FBF5F5DC
:1084AC001F31954291FBF4F44FFA84F928BF15461D
:1084BC0006464946FFF7DDFF2A4630464146FFF7A0
:1084CC008BFCB7F90230ED009D4220D9ED1A06EB7A
:1084DC00840100228E420AD251F8040D20FA05F3D1
:1084EC0013430B60C5F1200300FA03F2F2E72437C3
:1084FC00384631464A46FFF775FC012807D030460E
:10850C0031463A464B46BDE8F047FFF7B3BCBDE8F1
:10851C00F08710B500231A465CB28C4204DA50F88E
:10852C00244001332243F7E7B2FA82F0400910BD30
:10853C004A11012301F01F0150F822008B40184012
:10854C0070470139C9B24BB2002B0BDA013111F073
:10855C00FF0315D059B201F18043013B50F82320A1
:10856C00002304E050F82330002BEAD0EEE712B1E0
:10857C0052080133FBE7481E03EB401080B200E0C9
:10858C00184600B2704730B5002463B2934206DA45
:10859C001BB2013451F8235040F82350F5E730BD9D
:1085AC00F0B50C4689B008220646FFF7ECFFE36AEB
:1085BC000393236B0493636B0593A36B0693E36B99
:1085CC000793002769466A46082368460297019775
:1085DC000097FFF71FFC314605466A4608233046D4
:1085EC00FFF718FC236B0393636B0493A36B059346
:1085FC00E36B0693054469466A4608236846079769
:10860C00FFF708FC314605446A4608233046FFF75D
:10861C0001FC236A0093636A0193A36A0293A36B20
:10862C000693E36B0793054431466A4608233046AC
:10863C00059704970397FFF7EDFB636A0093A36A12
:10864C000193E36AA26B0293636B03930492069308
:10865C00E26B236A05920544079331466A46082368
:10866C003046FFF7D7FBE36A0093236B0193636BF0
:10867C000293236A0693A36A0793054431466A461C
:10868C0008233046059704970397FFF7F3FB236BFA
:10869C000093636B0193A36B0293E36B0393636A85
:1086AC000693E36A07932D1A31466A46082330462F
:1086BC0005970497FFF7DEFB636B0093A36B0193A5
:1086CC00E36B0293236A0393636A0493A36A05938F
:1086DC00236B07932D1A31466A46082330460697BA
:1086EC00FFF7C8FBA36B0093E36B0193636A0393DF
:1086FC00A36A0493E36A0593636B07932D1A3146BF
:10870C0030466A46082302970697FFF7B3FB2D1AEB
:10871C0016D5304631460D4A0823FFF77BFB451929
:10872C00F7D410E0094831460822FFF75BFB01281B
:10873C0009D030463146054A0823FFF79BFB2D1A1A
:10874C00002DEFD0F5E709B0F0BD00BFE8CE070073
:10875C00013A30B5D2B2002453B2002B09DB1BB264
:10876C00013A51F8235050F823306B401C43D2B2DD
:10877C00F2E7B4FA84F0400930BD00EB810100232C
:10878C00884206D251F8042D43EA52030B60D307FA
:10879C00F6E77047F8B5036813F0010506460F4677
:1087AC00144605D001463A462346FFF733FB0546EF
:1087BC0030462146FFF7E1FF45B104F18042013A12
:1087CC0056F8223043F0004346F82230F8BD70B51D
:1087DC009DF910401D4623460646FFF71BFB30B99A
:1087EC00284631462246FFF7FDFA012807D03046CD
:1087FC0031462A462346BDE87040FFF73BBB70BDAF
:10880C0070B59DF910401D4623460646FFF732FB16
:10881C0038B1304631462A462346BDE87040FFF752
:10882C00F9BA70BD2DE9F043A3B09846019112AB93
:10883C0041460746104691460093FFF782FEC0EB77
:10884C00881086B2454C33B21C40002CBEBF04F1DC
:10885C00FF3464F01F040134202593FBF5F5EDB2D1
:10886C006DB2A4B202A8294624B2FFF702FE28B2C8
:10887C0002AB002C03EB800010DD002213464345B5
:10888C0010D259F8235005FA04F10A4340F823207A
:10889C00C4F1200225FA02F20133F0E749464246C0
:1088AC00FFF771FE0FFA88F502AB4FEA4509012478
:1088BC0003EB8505330444D40022114653B24B45D7
:1088CC0022DA0DF1880E0EEB840E0DF1880C18B225
:1088DC005EF888EC0CEB83035EF820E053F8803CE8
:1088EC00C3EB0E035B1A734502D08CBF0121002130
:1088FC00C4F1010E0DF1880C0CEB8E0E01325EF8FA
:10890C0088EC4EF82030D9E7621A544202A841464E
:10891C005441FFF732FF22AA08F1FF3302EB830325
:10892C0002EB8802284652F8801C53F8802C013E3A
:10893C0042EAC172414643F8802CB6B2FFF71DFFE4
:10894C00B8E722AB03EB8404384654F8881C424643
:10895C00FFF719FE23B0BDE8F08300BF1F000080B5
:10896C0070B590B006469DF950401D4668462346AA
:10897C00FFF7B0FA304669462A462346FFF752FF06
:10898C0010B070BD30B51C4691B0054693F900305F
:10899C006846FFF79FFAD4F8AC30284669469847EA
:1089AC0011B030BD30B5144691B0054692F9002097
:1089BC006846FFF718FCD4F8AC302846694698474F
:1089CC0011B030BD2DE9F04115468AB004468846F9
:1089DC0002A80021202203F05EFC2E7803232046FF
:1089EC0041462A462F1D76B20293FFF7DBFF204645
:1089FC00214602AA3B460096FFF702FF204621467D
:108A0C0042462B46FFF7BEFF00962046214605F155
:108A1C0084023B46FFF7DBFE0AB0BDE8F0812DE98E
:108A2C00F04793F9006092B00446894610463146EF
:108A3C0015469846FFF76DFD002840F0978002A878
:108A4C0049464246FFF7AEFF43460AA8214602AA12
:108A5C00FFF798FF02A801464246FFF7A3FF4346E3
:108A6C00484649462A46FFF78DFF08F10407284679
:108A7C0029464246FFF796FF204621462A463B46AA
:108A8C000096FFF7A4FE284629462A463B46009648
:108A9C00FFF79DFE284621462A463B460096FFF7E7
:108AAC00AFFE204621462A464346FFF76BFF284679
:108ABC00214622463B460096FFF789FE20463B4660
:108ACC00009621462A46FFF782FE2368DB072046E4
:108ADC0013D5334621463A46FFF79CF93146824678
:108AEC002046FFF74AFE06F18043013B54F8230071
:108AFC0040EACA7044F8230002E03146FFF73DFE1D
:108B0C00284621464246FFF74DFF284629460AAA29
:108B1C003B460096FFF774FE284629460AAA3B46B8
:108B2C000096FFF76DFE0AA801462A463B460096C2
:108B3C00FFF766FE204621460AAA4346FFF722FFAE
:108B4C0002A802463B4621460096FFF759FE2046F6
:108B5C0029463246FFF717FD284649463246FFF7AD
:108B6C0012FD484602A93246FFF70DFD12B0BDE8D2
:108B7C00F0872DE9F0438BB08046129D15F9046BFC
:108B8C00009614461F4689462B4602A811464246BB
:108B9C00FFF736FE02A80146129AFFF703FF404684
:108BAC00414602AA129BFFF7EDFE2046214602AA7F
:108BBC00129BFFF7E7FE2B46384639464A4600968D
:108BCC00FFF71EFE02A83946129AFFF7EBFE02A829
:108BDC00014642462B460096FFF712FE02A80146BC
:108BEC0022462B460096FFF70BFE204621464246B6
:108BFC002B460096FFF704FE484649462246129B38
:108C0C00FFF7C0FE2046414602AA2B460096FFF70E
:108C1C00F7FD384639462246129BFFF7B3FE38461D
:108C2C0039464A462B460096FFF7EAFD204602A934
:108C3C003246FFF7A8FC0BB0BDE8F083F0B589B065
:108C4C001C4607460E461546684611461A46FFF75F
:108C5C00A9FE384639466A462346FFF793FE684616
:108C6C0069462A462346FFF78DFE304631466A4652
:108C7C002346FFF787FE09B0F0BDF0B50646A1B05C
:108C8C000F460846194615461C46FFF742FC20B114
:108C9C0030462146FFF7EDFB73E068463946224625
:108CAC00FFF771FC08A829462246FFF76CFC10A8B8
:108CBC002146FFF7DEFB012318A821461093FFF78E
:108CCC00D8FB684608A92246FFF78CF8002853D039
:108CDC00009BDA0704D468462146FFF74EFD26E0D8
:108CEC00089BDB0704D408A82146FFF746FD3DE0AE
:108CFC0000281EDD08AA234669466846FFF7BAF825
:108D0C0068462146FFF739FD10A818A92246FFF73F
:108D1C0069F8002805DA10A801462A462346FFF711
:108D2C0079F810A8014618AA2346FFF7A3F810A853
:108D3C001DE008A86A4623460146FFF79BF808A8E1
:108D4C002146FFF71AFD18A810A92246FFF74AF88A
:108D5C00002805DA18A801462A462346FFF75AF8D8
:108D6C0018A8014610AA2346FFF784F818A829462C
:108D7C002246FFF70FFDA4E7304610A92246FFF765
:108D8C0002FC21B0F0BD000000487047E4CE0700A3
:108D9C002DE9F04FEFB01E46789C05902378049394
:108DAC00B4F9023092461F33202293FBF2F3DBB26C
:108DBC0006939DF9187094F9012007F1FF3926AB41
:108DCC00002543F829506EAB03EB89034EA88B4664
:108DDC00314643F8805C43F8605CFEF7FDFF94F984
:108DEC00012056A8B118FEF7F7FF9DF910604EA8A8
:108DFC003146FFF78EFB8046002840F02F8156A8A5
:108E0C003146FFF786FB0546002840F0258104F12A
:108E1C00240840464EA93A46FEF7E4FF012840F0EC
:108E2C001D81404656A93A46FEF7DCFF0128089002
:108E3C0040F014813B461EA856A94246FFF71DFF81
:108E4C000DF1380C60465946524623464CF82950D1
:108E5C00CDF80CC0FFF719FBDDF80CC0009760468D
:108E6C0061461EAA4346CDF824C00DF5BC79FFF728
:108E7C0077FD4346009716A84EA91EAAFFF770FD72
:108E8C00484632460599FFF77EFBB300039309EB86
:108E9C00030B039A059B584699183246FFF773FB50
:108EAC0004F144031946324636A80793FFF76BFBCF
:108EBC0004EB860132463EA8443104F1040AFFF764
:108ECC0062FB494600961EA836AA5346FFF798FC4B
:108EDC004A465B4636A83EA90094FFF74AFE1EA8F8
:108EEC00014633465246FFF7C8FE1EAA484659466D
:108EFC002346FFF7A3FEDDF824C0079B0B936046C7
:108F0C00059B0C933946CDF814C00A95CDF83490D6
:108F1C00FFF717FB3946054616A8FFF712FBA842C8
:108F2C00B8BF284685B2DDF814C06F1E3FB260464C
:108F3C003946FFF7FDFA394610F1000916A818BF9B
:108F4C004FF00109FFF7F4FA002814BF02230023A5
:108F5C0043EA09090DF1280B32465BF8297026A863
:108F6C003946FFF710FB039B3246F9182EA8FFF782
:108F7C000AFB31461EA8FFF77CFA023D089B1E93A4
:108F8C00AEB237B2002F44DB23461EAAD4F8A4504D
:108F9C0026A82EA9A84739460EA8FFF7C9FA3946C4
:108FAC00051C16A818BF0125FFF7C2FA002814BF2C
:108FBC00022300231D430AAB53F8257037B39DF9E8
:108FCC00105036A839462A46FFF7DDFA039B3EA817
:108FDC00F9182A46FFF7D7FA36A83EA91EAA234647
:108FEC00FFF72CFE46A826A936AA53460095FFF794
:108FFC0007FC36A83EA926AA2EAB0094FFF7B9FDB4
:10900C001EA8014646AA2346FFF7BCFC013EB6B299
:10901C00B7E79DF910501EA8014652462B46FFF7A4
:10902C002CFE234626A82EA91EAAFFF707FE9DF9A3
:10903C001840404626A92246FEF7D4FE012805D04A
:10904C0026A8014642462346FEF714FF26A84EA941
:10905C002A46FFF77DFB02E0404600E028466FB051
:10906C00BDE8F08F007800F00100704741DF7047D9
:10907C00014B01221A707047B86B0020BFF34F8F61
:10908C000549064BCA6802F4E0621343CB60BFF398
:10909C004F8F00BFFDE700BF00ED00E00400FA05B4
:1090AC00024B034800221A7001F0ACBBB86B0020D5
:1090BC0089900700C31E10B50446042B09D8DFE8BD
:1090CC0003F00303080F0F0009494FF4701000F070
:1090DC0037FA084B1B6853B12046BDE810401847BF
:1090EC00054B064800221A7001F08CFBF1E710BD0D
:1090FC00AD900700BC6B0020B86B00208990070076
:10910C000020704738B5554B1860002001F090FBDB
:10911C00044648B900F0ECFA012800F0958041B201
:10912C0021B1022800F09680032038BD4FF0804317
:10913C00D3F8004414F480341AD04FF48032C3F8BE
:10914C0000240C46464D2B6A012B31D143F204030B
:10915C001A68444B9A421ED001F08AFCAA69014657
:10916C00002C57D0404801F06FFF002856D11FE06B
:10917C00D3F8202502F0F802A82A0AD1D3F820252A
:10918C00D10706D5D3F8202502F05602C3F82025C6
:10919C00D8E70124D6E76A6B1CB995F86032012B2D
:1091AC00DAD04FF48051314801F04EFF0028D3D172
:1091BC000120FEF73FFD4FF4701400F017FB2C4A12
:1091CC0020211820FCF7F4F808B1FEF7D7FD294B45
:1091DC001A6802F0F802B02A06D11A68D20742BF08
:1091EC001A6802F04E021A60FFF78AFF00289BD122
:1091FC002046214900F0A4F9204800F0B7FC0028D3
:10920C0092D100F019FBFCF75DF902F0B1F9FFF710
:10921C002DFFF6E795F8A132012BA3D1154B186859
:10922C0010F0B100C7D1FEF705FD0028C3D101F045
:10923C00CBFB00287FF478AF114B1870114801F06C
:10924C00E1FA00F023F86FE70D4B0F481C7001F0AA
:10925C00D9FA69E74FF4A024AFE700BFBC6B00203C
:10926C0088830020DBE5B15129860020E8850020A9
:10927C00986700201C050040AD900700C1900700C6
:10928C00B86B00207D9007008990070008B5074B4C
:10929C004FF0FF32C3F88020C3F8802101F0AEF804
:1092AC004FF48050BDE8084000F02EB800E100E01B
:1092BC00C1F30B0330B52BBBB0F5FE2F22D8000B3E
:1092CC00013900EB113101254FF08042814201D26E
:1092DC00002030BD00F01F03440905FA03F3032CF2
:1092EC0005D8DFE804F00206090CC2F8003601309C
:1092FC00ECE7C2F80436FAE7C2F81036F7E7C2F822
:10930C001436F4E70720E4E730B50546204889B069
:10931C000022C0F5FE21FFF7CBFF01F0A9FB1D4B8E
:10932C009969002201441046FFF7C2FFEFF3058252
:10933C000023D5E9004183F3148883F3108883F369
:10934C00118883F31388C2F308023AB984F30888AE
:10935C004FF0FF339E46084709B030BD4FF0FF3544
:10936C00203CCDE90033CDE902330493CDE905511E
:10937C004FF08073202269462046079302F062FF6B
:10938C0084F30888AE466FF006031847E4E700BF85
:10939C00005007008883002037B56FF07F42154CD2
:1093AC00057BD4F804358A4228BF0A46891A13442F
:1093BC004A1E942A23F07F4305F5A8729BBF963B67
:1093CC0096314160416044F822300B4B4FF4F86009
:1093DC0043F001039847094BAA00134400221A607A
:1093EC001B680193019B4FF48033AB40C4F80433EA
:1093FC0003B030BD00400240A0CF07004041024006
:10940C0018490A7884B0002A29D14FF08043A02053
:10941C00D3F81834DB035EBF134B01221A60134AD6
:10942C000023136012680392039A114A13601268A6
:10943C000292029A0F4A136012680192019A0E4A24
:10944C0082F82403102050600C4A0D48C2F80835ED
:10945C000123036002201360C2F804030B7004B0F4
:10946C00704700BFC46B0020080000400041024060
:10947C00404102404441024000E100E00040024013
:10948C0008400240284B1A6813B542B127490A68B4
:10949C0001320A6000221A601B680093009B244B67
:1094AC001A68A2B100221A6022481B68027B019341
:1094BC00019B4FF4803393401F4AC2F80833416834
:1094CC00044601BB8168D9B9236803B198471B4B8B
:1094DC001A6832B300221A6016481B68027F019387
:1094EC00019B4FF480339340134AC2F8083341690F
:1094FC00044659B1103002B0BDE81040FFF74CBF24
:10950C00FFF74AFFE0E7FFF747FFE0E7816911B19A
:10951C001030FFF741FF23691BB102B0BDE81040CA
:10952C00184702B010BD00BF04410240C06B0020C0
:10953C00404102402460002000400240444102406F
:10954C0070B50B4B1C68227B4FF480339340094A57
:10955C000E46C2F80833054640B1FFF751FF2660AE
:10956C0029462046BDE87040FFF716BF70BD00BF0E
:10957C00446000200040024070B5074B1C68054653
:10958C000E46A060FFF73CFF266029462046BDE84A
:10959C007040FFF701BF00BF48600020014B012263
:1095AC001A707047C56B002070B5154DEA6A6E6A6B
:1095BC00AC6CAC2A13D16B6B1C44F61AEB6AAC2B5B
:1095CC0013D0324621460F4802F0DCFDA8B100F062
:1095DC0033F931462046BDE8704000F0F1BE002C56
:1095EC00ECD101F05BFA0446E8E73246A4F5804181
:1095FC00044802F0C7FD0028E3D1002070BD00BF75
:10960C0088830020005007002DE9F74F80468946DB
:10961C00A9EB0804240B02F6FF76154600F0E6F8D9
:10962C00082C28BF08242303DFF860B00193360B05
:10963C000DB92B4626E0B4422CBFB246A2464FF0E1
:10964C000002514640462CBF2F46019F00F0A0FE61
:10965C000346B8B9FA1C22F003024946404600F012
:10966C0089FE034670B9DBF83030ED1BB844B944C1
:10967C001F44CBF8307001F0CBF8A6EB0A0603467A
:10968C000028D5D0184603B0BDE8F08F88830020A1
:10969C0010B501F013FA154A42F20403916CCC5840
:1096AC0003F1A34303F5471303F2D7539C4218D19C
:1096BC00D2E90C32934216D0884204D10020BDE886
:1096CC00104001F0A5B8D21A02F6FF7222F47F62A4
:1096DC0022F00F0219441844FFF796FF0028EDD032
:1096EC0010BD0320FCE70020FAE700BF88830020B0
:1096FC0070B5264CE36AA52B33D003D8012B0BD0C5
:10970C00002070BDAA2B30D0AC2BF9D1FFF7C0FFD5
:10971C0048BBFFF749FF26E0A66C656A01F0A8F983
:10972C00864229D101F0A4F900222946FBF736FF25
:10973C00A36A984202BF0123C4E90703A56100256F
:10974C00134801F089F9134B134800221A7001F0E9
:10975C005FF868B975B1236A012B14BF0120022090
:10976C00CFE7FFF795FF0125EAE7FFF71DFFE6E7D7
:10977C000320C6E70120C4E7236BEA1AF11818444A
:10978C00FFF742FF0028DAD1CCE700BF8883002026
:10979C00AC830020C56B0020A99507000A4AD2F8BB
:1097AC0000347BB109480023D2F80815D940C90709
:1097BC0048BF03F5C07103F1010348BF42F8210013
:1097CC00072BF1D1704700BF000001403546526EA7
:1097DC00FFF7E4BF044B002282B01A601B680193B0
:1097EC00019B02B0704700BF0001014038B50E4C20
:1097FC002278BAB90D4BD3F800248AB1D3F80455AA
:10980C00FFF7CCFF40F61650A842B8BF28460849CF
:10981C00A0F54860FFF7B0FE064B4FF480321A609B
:10982C000123237038BD00BFC66B0020000001402F
:10983C00DD97070000E100E0034BD3F800340BB1D7
:10984C00FFF7ACBF704700BF000001400C4B1B780A
:10985C00062B10D10B4B1B681A070CD10A4B18683E
:10986C0000F0F003302B08D000F0E000A0F1400332
:10987C00584258417047002070470120704700BF84
:10988C00E00F00F0E40F00F0E80F00F0094B1B783C
:10989C00062B0CD1084B1B681A0708D1074B18680C
:1098AC0000F0F000A0F130035842584170470020FE
:1098BC00704700BFE00F00F0E40F00F0E80F00F07D
:1098CC0008B5FFF7C3FF28B17D4B7E4A1B68C3F375
:1098DC0004231360FFF7DAFF10B17B4B7B4A1A604D
:1098EC00FFF7B4FF28B17A4B7A4A1B68C3F34233B3
:1098FC001360FFF7CBFF20B1774AD36823F0807356
:10990C00D360FFF7A3FF40B14FF080430022C3F8B0
:10991C000C21C3F81021C3F83825FFF7B7FF10B19D
:10992C006E4B03221A60FFF7B1FF40B16C4B05225E
:10993C001A6001229A6700229A603F225A60694B92
:10994C001B78062B50D1684B1B6819074CD1674B01
:10995C001B6803F0F003502B46D14FF08052644B40
:10996C00D2F80414C3F82015D2F80814C3F824153F
:10997C00D2F80C14C3F82815D2F81014C3F82C150F
:10998C00D2F81414C3F83015D2F81814C3F83415DF
:10999C00D2F81C14C3F84015D2F82014C3F844159F
:1099AC00D2F82414C3F84815D2F82814C3F84C156F
:1099BC00D2F82C14C3F85015D2F83014C3F854153F
:1099CC00D2F83414C3F86015D2F83814C3F86415FF
:1099DC00D2F83C14C3F86815D2F84014C3F86C15CF
:1099EC00D2F84424C3F87025FFF730FF28B1414B5F
:1099FC00414A1B6803F04F031360FFF727FF48B180
:109A0C004FF08043D3F80024D20744BF6FF001021B
:109A1C00C3F80024394B1B68062B08D1384B1B6844
:109A2C00062B01BF374A136843F480631360364A30
:109A3C00D2F8883043F47003C2F88830BFF34F8FEC
:109A4C00BFF36F8F4FF01023D3F80022002A03DBF3
:109A5C00D3F80432002B2FDA2C4B0122C3F8042547
:109A6C00D3F80024002AFBD04FF010221521C2F8A5
:109A7C000012D3F80024002AFBD04FF0102315223B
:109A8C00C3F80422214B1A46D3F800140029FBD04A
:109A9C000021C3F80415D2F80034002BFBD0BFF31F
:109AAC004F8F19491A4BCA6802F4E0621343CB601A
:109ABC00BFF34F8F00BFFDE7164B174A1A6008BD66
:109ACC00240300104035014074C007400DF0ADBABE
:109ADC00440200103C050040F0ED00E0A005004001
:109AEC0010560040E00F00F0E40F00F0E80F00F01B
:109AFC0000C0004058020010E40E0040300100107D
:109B0C00340100103C17004000ED00E000E0014083
:109B1C000400FA054C6000200090D00313681F2B42
:109B2C0010B5144607D900220830FCF7AFF908B974
:109B3C002023236010BD48F21450FBE70830FCF7DB
:109B4C0081B90830FCF74EB9062810B5044602D18D
:109B5C00002000F069FF044B1B681BB12046BDE8D8
:109B6C001040184710BD00BFC86B002008B5074B4C
:109B7C0018600020FFF7E8FF054800F03DFF20B912
:109B8C000348BDE8084000F0C7BD08BDC86B002005
:109B9C00559B07006CDF70476DDF704772DF7047B5
:109BAC0073DF704774DF704775DF704776DF70477F
:109BBC007ADF70477CDF70477DDF70477FDF70474F
:109BCC0086DF70478FDF704790DF7047A8DF7047E4
:109BDC00AADF7047ADDF7047AEDF7047B0DF70476C
:109BEC00B1DF7047B5DF704762DF704766DF7047E3
:109BFC0013DF70477FB50023CDF80A30ADF80E3077
:109C0C000A4BADF806109B89ADF8083001238DF88E
:109C1C000A300DF10603CDE90430054B02A9188872
:109C2C00FFF7DAFF07B05DF804FB00BF367C0020BD
:109C3C005260002001460148FBF7CFBD14CB070052
:109C4C0030B518228DB000210DEB020002F023FB81
:109C5C00282308931623ADF806300023CDF80E30D8
:109C6C00CDF81230ADF816301A4B029302220621B1
:109C7C0009251A7099701A71032159220124D9707F
:109C8C005A710DF10601FE2258198DF818408DF805
:109C9C002D40ADF80C505C709A71FFF78DFFB8B980
:109CAC00BDF806201D721119D971BDF80C301A447B
:109CBC00094BADF80C2002A906AA1846FFF76EFF57
:109CCC0030B91878FFF76EFF21461878FFF768FF58
:109CDC000DB030BD4A7C002050600020F0B50388E8
:109CEC001F2B8BB0044600F0C28029D8112B56D004
:109CFC0006D8012B00F0CC80102B42D00BB0F0BD5D
:109D0C00142B00F042811A2B34D0132BF6D10023E4
:109D1C00A14CADF812300223ADF8103004AA02ABFE
:109D2C0042F6052120880593FFF754FF08B1FEF792
:109D3C0025F800231A4685212088FFF73FFF86E08F
:109D4C00512B00F0AB800ED8232B00F08880502BC9
:109D5C0039D0212BD2D1002304A98088ADF8103042
:109D6C00FFF730FF73E0552B59D0562B00F086804F
:109D7C00522BC3D100231A461946A088FFF730FF97
:109D8C0065E0854B82881A80844A12681C460AB1A9
:109D9C000120904782492088FFF706FFAEE77E4BF3
:109DAC004FF6FF721A807F4B1B685A0704D4FFF7DB
:109DBC0047FF08B1FDF7E2FF784B1B68002B9DD0E5
:109DCC00022098479AE7784EC288B3889A4295D178
:109DDC007648FBF7DEFC054600288FD0228A04F17A
:109DEC00120102F02FFA1822002104A802F053FAF3
:109DFC0008238DF810306E4B06936E4B0596CDE90B
:109E0C00073504A8238AADF8243000F07BFC002829
:109E1C003FF474AF29466548FBF7DFFC6EE7C18859
:109E2C00F6291AD8CB1E9B070DD0CB1F9BB2013B3A
:109E3C005A4202F0030203F0030301F1FF3158BF51
:109E4C005342C91A89B2544B1888FFF7CBFE00282D
:109E5C003FF454AFFDF792FF50E7F721F3E70022F0
:109E6C0004A98088CDE90422FFF7AEFEEFE74A4B48
:109E7C0000F108011888FFF797FEE8E78379002BBB
:109E8C007FF43CAF444B13211888FFF78FFEDEE7BD
:109E9C00414B00211888FFF7A9FED8E78379002BE6
:109EAC003FF42CAF022B7FF429AF3F4900898A89FC
:109EBC0090420E467FF422AFA27B012A7FF41EAFA4
:109ECC0000220120CDE904228DF81600208AADF87D
:109EDC001800314D608AADF81A0004F114008DF8A9
:109EEC0010300790ADF80A20ADF8083002AA01AB8B
:109EFC00098A28880393FFF76DFE2F4660B9184630
:109F0C00FFF7B0F840B940F2FD1304A92888ADF86A
:109F1C001430FFF763FEF1E6002304A93888ADF88E
:109F2C001430FFF75BFE014600287FF4E7AE1822E1
:109F3C0004A802F0B0F9237D1D4A8DF81030022BD5
:109F4C000596069218D0062B10D0012B10D11A4B67
:109F5C001A881A4B1A80637DD4F816200893012BAB
:109F6C00099205D1164800F05FFD01E0637D08936E
:109F7C0004A800F0C7FBC1E6A27D637D43EA02237F
:109F8C000D4A13800D4A1380F2E700231A46194636
:109F9C008088FFF715FE5AE752600020707C002085
:109FAC0096D107006C7C0020367C002014CB070077
:109FBC0039A00700419C0700747C0020767C0020AF
:109FCC00F8CA070014490A6838B512F0010321D009
:109FDC00124B98421ED0124B18884FF6FF739842C2
:109FEC0013D042F004020A601321FFF7DFFD90B991
:109FFC000C4DC82445F001054FF47A40A847013CAC
:10A00C00FAD1BDE8384001F00BBC074B1878FFF7CC
:10A01C00C9FDF6E7002038BD6C7C0020F8CA0700AB
:10A02C005260002090D107005060002010B504460B
:10A03C0086B01122002101A802F02DF92378082BFB
:10A04C000BD1374A374913880988013B9BB21380DF
:10A05C00D9B1D3B9032311802370627823788DF89A
:10A06C0005306021012A8DF804108DF806200ED0E1
:10A07C000B2A12D100F09AF98DF80700002000F09D
:10A08C008FF9042101A8FFF7B5FD06B010BD062B12
:10A09C0005D0082B29D0032B27D00321F2E7E16848
:10A0AC008DF80710D4E90123080A8DF80800080C74
:10A0BC00090E8DF80A10110A8DF80B208DF80C1072
:10A0CC00110C120E8DF80E201A0A8DF80F308DF827
:10A0DC0010201A0C1B0E8DF80D108DF809008DF840
:10A0EC0011208DF812300F21CCE7D4E90123110A8D
:10A0FC008DF807208DF80810110C120E8DF80A201F
:10A10C001A0A8DF80B308DF80C201A0C1B0E8DF8DA
:10A11C0009108DF80D208DF80E300B21B2E700BF21
:10A12C00767C0020747C00202DE9F043444B95B0E4
:10A13C0005464FF6FF721A8001204FF659632A46E6
:10A14C0002A98DF80A00ADF80830FFF73FFD044670
:10A15C00002871D13B4B04AA03F11007164618686E
:10A16C005968144603C40833BB422246F7D1A91CD4
:10A17C003046FFF739FD044600285DD101461C220C
:10A18C000DA802F088F89DF83430ADF8044043F087
:10A19C0004038DF834300223ADF80C30AB788DF815
:10A1AC000E3004F0F80343F003038DF80630F4236B
:10A1BC00CDE90A44ADF82C302B4601AE4FF0110915
:10A1CC0003AF33F8040B0C9408AA0DA98DF8059075
:10A1DC00CDE90876FFF7FCFCA046044660BB0146BF
:10A1EC001C220DA802F057F89DF83430ADF804404D
:10A1FC0023F0180343F018038DF834300123ADF825
:10A20C000C30AB788DF80E301723CDE90A44ADF83D
:10A21C002C302B4608F0E80848F0130833F80C0BE8
:10A22C000C9408AA0DA98DF805908DF80680CDE93F
:10A23C000876FFF7CDFC0446204615B0BDE8F08348
:10A24C005260002074D1070030B5364C236813F0EF
:10A25C00010585B061D1344B1B78002B5FD0334B9B
:10A26C0018603348FBF77EFA029500F0BAF8002824
:10A27C004CD13048FFF7BCFC002847D101F092FAD2
:10A28C00002843D102A801F05BFB00283ED102A9B3
:10A29C00012001F05FFB002838D102A801F0C2FBBD
:10A2AC00002833D100F080FB30B1234800F070FB64
:10A2BC00236843F002032360112302A88DF80430B5
:10A2CC00FFF76AFC10BB9DF8093002A801338DF82A
:10A2DC000930FFF75FFCC8B923689B0718D51649EE
:10A2EC008869043182B201A8FFF764FC70B9134885
:10A2FC00FFF75EFC50B91248FFF716FF30B9FFF7B5
:10A30C009FFC18B9236843F00103236005B030BDEE
:10A31C000C4802F015F80B49E4E70020F6E7184664
:10A32C00F4E700BF6C7C002054600020707C00209F
:10A33C0014CB070000500700CC6B002096D107000F
:10A34C00367C002084D1070043690BB1C0681847E4
:10A35C00704700000449054B0022904208BF194683
:10A36C000348FBF754BA00BFB8CB07008CCB0700EF
:10A37C000060002007B5009313460A4601460348C7
:10A38C00FBF749FA03B05DF804FB00BF0060002046
:10A39C0013460A4601460148FBF744BA0060002008
:10A3AC00014B18700B207047787C0020024B002268
:10A3BC0018781A70704700BF787C002018DF70473F
:10A3CC0030B585B0054610220C466846002101F0D8
:10A3DC0062FFA408684601950294FFF7EFFF05B0F1
:10A3EC0030BD1FB50023CDE901330393684602232A
:10A3FC000093FFF7E3FF05B05DF804FB4FF000534B
:10A40C004FF480521A60002070470000014B062068
:10A41C001B681847847C00200A2803D90B38C0B26B
:10A42C00FFF7BEBF7047000010B5044686B0002091
:10A43C00FBF700FA014630B1164A18212046FAF70C
:10A44C00DBFF06B010BD1822684601F024FF042380
:10A45C008DF80030104A114B116D1B68994211D1C7
:10A46C000F4B186800F038FF8DF80100FFF7D4FF90
:10A47C00D4E901138DF8010068469847094800F0AB
:10A48C00C7F9DEE701238DF801306846D4E90113E2
:10A49C009847D6E735A40700888300207C7C0020F1
:10A4AC00807C002019A40700F0B5044687B0162262
:10A4BC0000210DF1020001F0EEFE23788DF8003042
:10A4CC0001220C2B8DF8012000F210819A4012F41D
:10A4DC00AD7F15D1510706D4D30440F10781844BCD
:10A4EC0007201B689847D4E90113684698479DF8E4
:10A4FC000130012B00F0EF807D4B05201B68E9E05B
:10A50C00062B7C4A01D0012B01D1216911701178E5
:10A51C00012904D0022954D00023137096E0013B8A
:10A52C00072BE0D801A252F823F000BF59A5070071
:10A53C00F3A40700C3A5070097A50700F3A4070021
:10A54C00BDA50700F3A4070071A50700684B032005
:10A55C001B689847606900F0C5FCFFF75DFF8DF83C
:10A56C000100C0E7A18A206900F0D4FCFFF754FF7A
:10A57C00614B8DF80100DA6B1B6C0293E36801925E
:10A58C00002BB0D020699847ADE75C495C4800F0DF
:10A59C000FFDFFF741FF01288DF80100A3D100202A
:10A5AC0000F036F900289ED00A238DF801309AE786
:10A5BC004FF400730393504BDA6B1B6C01920293B4
:10A5CC0091E7013B072B8ED801A252F823F000BF74
:10A5DC00FDA50700F3A40700B3A60700BDA607005E
:10A5EC00F3A40700E7A60700F3A407005DA6070085
:10A5FC0000F0B0FC08B90823D7E762690AB9032355
:10A60C00D3E7C2F30B0333B13B4B3C495B6D096899
:10A61C0013448B42F3D1B2F5805F01D90423C4E714
:10A62C00354B3649586D096815188D42E3D85A6474
:10A63C00DA6C9A6418651863314B1B68002201218F
:10A64C001844FFF7A5FE00283FF44DAF0523ACE7F7
:10A65C0000F080FC0028CED0274DA18AD5E9143219
:10A66C009B1A6A6C0B449342C9D8254B2E6B1B6802
:10A67C00206905F148021E44FAF790FFE368A28AAC
:10A68C00216907463046FFF775FE08B1E36879E7A4
:10A69C00A38A2A6BAF641A442A632A6D0297134467
:10A6AC002B6501931FE7144B9A6C02921B6DF8E714
:10A6BC00114BD3E91402596C821A8A429BD19A6CC1
:10A6CC005865002120465964DA64FFF7ADFE084B4B
:10A6DC001B680420984707B0F0BD074B9A6C1B6DA4
:10A6EC0001934FF4805302920393FCE602235CE740
:10A6FC00847C002055600020888300207C7C002016
:10A70C00807C002083681BB1024A1821FAF774BEC2
:10A71C0007207047B5A4070038B50546C0B1012025
:10A72C00FFF718FE044648B900F0CEFB00F012FC0F
:10A73C0030B9084B00201D60FFF732FE204638BDB3
:10A74C000549064800F034FC0128F2D00324F5E753
:10A75C000724F3E7847C00207C7C0020807C002094
:10A76C002DE9F04115464FF46072064688461F46A7
:10A77C0001F008FD28B915B90020BDE8F081A84703
:10A78C00FAE7002201213046FFF702FE70B94FF4C0
:10A79C0060724146384601F055FD2B464FF460720D
:10A7AC0039463046FFF7E6FD0028E5D00320E4E704
:10A7BC0070B50C4C054600225821201DFAF7EEFE10
:10A7CC0000222060C32104F51870FAF7E7FE2A4630
:10A7DC00C4F85C022146044B0448BDE87040FFF706
:10A7EC00BFBF00BF88830020887C002000F00700DA
:10A7FC0002460248024B0068FFF7B2BF58600020C7
:10A80C00088000200149FFF7F3BF00BF00F00700EC
:10A81C0038B505460020FFF7CBFF044618B90349AD
:10A82C002846FFF7E5FF204638BD00BF888300208F
:10A83C002DE9F041FFF78EFD0246002872D13D4C08
:10A84C002368013357D05821201DFAF7A7FE25683D
:10A85C002A1A55425541384FDFF8E0803E6833687C
:10A86C00013362D000225821301DFAF797FE33686D
:10A87C00834242D17468012C0AD00022C32106F510
:10A88C001870FAF78BFED6F85C42231A5C425C41D6
:10A89C00ADB34FF460722749284801F0D3FC64B182
:10A8AC00396827485422043101F0CCFC396825481A
:10A8BC004FF432725C3101F0C5FCD8F80440012C25
:10A8CC002CD12149402201F5E47001F0BBFC1F4959
:10A8DC001C2201F5E47001F0B5FC1D4988F8A14279
:10A8EC000023042201F2862088F8603288F8E232D4
:10A8FC0001F0A8FC0FE00546ADE70024C8E724B141
:10A90C004FF4607239680D48D5E74FF4607200213E
:10A91C000A4801F0C0FC0223C8F804300020FFF7FD
:10A92C0077FF00B10320BDE8F081002DEDD00024AD
:10A93C00AFE700BF00F007005860002088830020BC
:10A94C008C830020E4830020E484002024850020F4
:10A95C00A483002029DF704738B50C4D0446D5F888
:10A96C00643378B101330FD1002218210430FAF787
:10A97C0015FE21462060072205F55970BDE83840C8
:10A98C00FFF7E8BF0E2038BD0820FCE700F00700F9
:10A99C0008B528B11C22034901F054FC002008BD65
:10A9AC000E20FCE764F3070010B5064C00221821BA
:10A9BC002046FAF7F3FD54F8043C1B1A5842584150
:10A9CC0010BD00BF68F3070010B50A4CD4F824334F
:10A9DC00D4F864231340013309D04FF4FE20FCF764
:10A9EC00D9FAC92221464FF4FE20FCF7EBFA0020DD
:10A9FC0010BD00BF88830020F8B5094E094CA41B7C
:10AA0C000746E4080025A54201D10020F8BD56F800
:10AA1C003530384698470028F8D10135F3E700BFA8
:10AA2C00F8CA070008CB0700F8B5094E094CA41B5F
:10AA3C000746E40800250436A54201D10020F8BDE4
:10AA4C0056F83530384698470028F8D10135F3E7E9
:10AA5C00F8CA070008CB070008B50C22002101F04A
:10AA6C001AFC024B00221A6308BD00BF8883002029
:10AA7C0043F204031A68084B9A4201BF43F20803DD
:10AA8C00186800F6FF7020F47F600CBF20F00F00F8
:10AA9C004FF48050704700BFDBE5B15108B5FFF7AC
:10AAAC00E7FF054B9B69184400F6FF7020F47F60AC
:10AABC0020F00F0008BD00BF888300204FF48050A9
