:020000022000DC
:1060000000000120756302005D6302005F6302000F
:106010006163020063630200656302000000000028
:1060200000000000000000000000000067630200A4
:1060300069630200000000006B6302006D630200F0
:10604000898602006F630200D18A02006F6302003A
:106050006F6302006F6302004D8902006F630200EC
:106060006F6302006F6302006F6302006F630200E0
:106070006F6302006F6302006F6302006F630200D0
:106080006F630200457102006F6302006F630200DC
:10609000E17102006F630200D9B302006F63020076
:1060A0006F6302006F6302006F6302006F630200A0
:1060B0006F6302006F630200000000000000000038
:1060C0006F6302006F6302006F6302006F63020080
:1060D0006F6302006F6302006F6302000000000044
:1060E00000000000000000000000000000000000B0
:1060F00000000000000000000000000000000000A0
:10610000000000000000000000000000000000008F
:10611000000000000000000000000000000000007F
:10612000000000000000000000000000000000006F
:10613000000000000000000000000000000000005F
:10614000000000000000000000000000000000004F
:10615000000000000000000000000000000000003F
:10616000000000000000000000000000000000002F
:10617000000000000000000000000000000000001F
:10618000000000000000000000000000000000000F
:1061900000000000000000000000000000000000FF
:1061A00000000000000000000000000000000000EF
:1061B00000000000000000000000000000000000DF
:1061C00000000000000000000000000000000000CF
:1061D00000000000000000000000000000000000BF
:1061E00000000000000000000000000000000000AF
:1061F000000000000000000000000000000000009F
:10620000354936480A1A02D0072291438D4634494F
:1062100034480A1A06D00722914381F309880222E2
:1062200082F3148830483149314A00F044F831484B
:106230003149324A00F03FF831483249324A00F0E1
:106240003AF832483249334A00F035F83248334997
:10625000334A00F030F833483349344A00F02BF821
:1062600033483449344A00F026F83448344900228F
:1062700000F02CF833483449002200F027F8334866
:106280003349091A082902DB002202604160314AC1
:1062900090471F481F49884205D00268043003B464
:1062A000904703BCF7E700208646EC46002000211B
:1062B000294A9047FEE7884207D0521A05D0037852
:1062C00001300B700131013AF9D17047884202D098
:1062D00002700130FAE770470000012000E0002062
:1062E0000000012000000120E4D30200E02900208A
:1062F000E02C0020D4630200D463020034C2020008
:10630000E4D30200E0290020E029002038C3020085
:1063100038C3020038C3020038C3020038C3020089
:1063200038C3020038C3020038C30200E4D30200BD
:10633000E4D60200E02C0020E02C0020E02C00201D
:10634000185000201850002018500020185000202D
:10635000187000209D6302009D9F0200FEE7FEE78B
:10636000FEE7FEE7FEE7FEE7FEE7FEE7FEE7FEE705
:10637000704700BF1048804710484FF0070188431E
:1063800085460F4880470F48016841F4700101605D
:10639000BFF34F8FBFF36F8FFFF732BF0A480B4930
:1063A0000B4A884207D0521A05D0037801300B708F
:1063B0000131013AF9D170477163020000000120F8
:1063C000A580020088ED00E038C30200E02900202B
:0463D000E0290020A0
:1063D4007047000007B5044B0093044A402300F0C3
:1063E40032F803B05DF804FBF5630200E12C0020F1
:1063F4002DE9F84389461446B2B10F4B0F4E0325DD
:10640400002743F00108224609EB0701002003F0AE
:1064140025FF0744241A48B933782BB14FF47A4046
:10642400C047013D02D13570BDE8F88301233370C4
:10643400002CE8D1F8E700BF40C30200E02C0020A4
:10644400704703F03FBFF0B595B01C4616460846AA
:106454000D4601F0D9FC1A9B0D93CDE90864002484
:106464002346082205A928460A948DF82C400C944A
:1064740001F0E7FC079B0293069B03939DF81430FD
:106484008DF8114003F00302012A1DD1BDF8144018
:10649400059EC3F3C203C4F383148DF81030A20025
:1064A40008230EA9284601F0CCFCC6F3952608ABB8
:1064B4000093224602AB0EA9304600F06FFB28463B
:1064C40001F0A6FC15B0F0BD022AF8D1BDF81640C3
:1064D400C3F3C203A4098DF810300827082C2646FC
:1064E40028BF08263B4632460EA9284601F0A9FCDF
:1064F400A41B08AB02AA31460EA8374400F0B2FB35
:10650400002CEBD1DBE7000008B5FFF79AFF04216C
:10651400034800F0B1FA034B01225A7108BD00BFD1
:1065240028C30200E0290020037813F0040216D0E7
:1065340003F00303012B03D0022B09D00120704781
:106544000A6800880232C0F3831002440A60F5E747
:106554000B684288023303EB92130B60EEE710469C
:10656400704700002DE9F04F87B000230446851CD6
:106574000DF107000F4690468DF8073001F02CF915
:10658400454806683E60D0E90132134401339B1B41
:10659400824600F21C4600F5836900F21447AB42C0
:1065A4001BD30022B8F1000F70D0052363F3070258
:1065B40064F38912DAF80010DAF808309DF807005D
:1065C4000B4003330D444AF82320CAF8005001F06D
:1065D40027F9012007B0BDE8F08F0121304601F012
:1065E40055F9484601F068F9384601F065F9DAF8DA
:1065F4000400DAF808B0029000EA0B0003300AEB5A
:10660400800002A9FFF790FF029B50BB0BEA030234
:106614000AEB820203F1020CD2680392013303EA0B
:106624000B0B0AEB8B0B02F00302012ACDF808C016
:10663400DBF80C1022D0022A16D08346384601F02B
:106644003EF910B1029BCAF804305946304601F0B5
:106654001DF9DAE901231344DAF8002001339B1A07
:106664009DE70BEA0300C9E7BDF80E309B0903332D
:106674004FEA114B0CEB93030293DFE7BDF80C30A8
:10668400C3F383134FEA114B6344F5E7062363F323
:10669400070264F39F528DE7F42D00200B4B0C4846
:1066A400FF2210B59A600022C3F81824C3E900221F
:1066B400C3F8142483F8202401F05FFB044610B9C6
:1066C400044801F063FC204610BD00BFF42D0020F7
:1066D400B8C2020064C3020030B50A4C71B10A4A60
:1066E4000A49121BD20800239A4201D1002030BD6E
:1066F40031F82350854202D00133F5E7034654F8BC
:106704003300F4E740C20200B8C20200E0290020CE
:10671400094B013903EBC000032909D8DFE801F074
:106724000A020406042070470079704740797047D4
:10673400002070470220704740C20200034BD3E997
:106744000030C31A58425841704700BFF42D00204E
:106754002DE9F04387B0FFF7F1FF0646002840F02B
:10676400FB807E4DC5F81804BFF34F8F6868AC6892
:1067740002902040033005EB800002A9FFF7D4FE0D
:10678400029B18B1D5F81824002A5FD004EA03024A
:10679400991C013305EB8202234005EB8303D26885
:1067A400DB68049302F00303022B0392029162D18B
:1067B400BDF80E306A484FEA9318B8F1500FC1463D
:1067C40028BF4FF0500969F38F1309F10801ADF8A0
:1067D4000E3001F0EAFA0746002800F0A88001F024
:1067E40013FB03A900230822384601F020FB029979
:1067F40024EA01060136B600B14535D95FFA89F9B4
:106804007EB3F6B2A9EB0609214003315FFA89F49D
:10681400B146544E05EB810108234A46384601F03F
:1068240006FB36B109F1080322463146384601F029
:10683400FEFA029B08F1030803EB98030293D5F8D0
:106844001834002B4BD1D5F810445BE02A689A42E7
:1068540004D86A60304607B0BDE8F08304EA030058
:1068640088E740493446D7E72140033108234A46A4
:1068740005EB8101DAE7012B59D1BDF80C3038481A
:10688400C3F38311062928BF062161F3891302315A
:106894008900ADF80C3001F088FA0746002846D08C
:1068A40001F0B2FA0023082203A9384601F0BFFA26
:1068B4000026BDF80C20C2F38312B300964203F104
:1068C4000803BCD202994A1C21400331029205EB11
:1068D40081010422384601F0AAFA0136E9E7384674
:1068E40001F096FAFFF72AFF80F00100C6B2B1E783
:1068F400E3685B7923B1236839461B6820469847CF
:10690400E3681C68002CF3D1384601F081FA0DF1DC
:1069140007008DF8074000F05FFFD5F818340BB975
:10692400029B6B609DF8070000F07AFFDAE7D5F868
:10693400104454B90C4B0D480D49C01AC00800044A
:1069440040F0020000F06EF8CCE7236820469B6814
:106954009847E3681C68ECE700267BE7F42D0020E9
:10696400B8C20200002E002040C2020068C2020029
:1069740070C302002DE9F74F284C80460F4692461B
:1069840001A9012218469B46D4F80890FFF7EAFDB6
:1069940080B3019D0026A91C5E4506EB010233D19C
:1069A40000211F4800F052FF80F310006A1C02EA25
:1069B400090204EB8202000405EA0903033340EAF6
:1069C4001840D06014F8232068F3C50204F823208B
:1069D40034F8232066F3891224F8232054F8232062
:1069E40067F39F2244F8232002F0F80242F00102E8
:1069F40004F8232094F820341BB1FFF7A9FE0028E3
:106A0400FBD103B0BDE8F08F09EA020204EB820275
:106A14005AF82630D3600136BEE700BFF42D0020BB
:106A24001032002000231A46FFF7A4BF07B5012344
:106A3400019201AAFFF79EFF03B05DF804FB07B5BE
:106A4400CDE9002302236A46FFF794FF03B05DF803
:106A540004FB7FB5CDE90023089B0293099B0393B4
:106A64000A9B04930B9B05936A460623FFF782FF58
:106A740007B05DF804FB000030B50F49D1F81024CD
:106A8400002314463CB9C468237152B9C1F81004F8
:106A94002260184630BDE46825799D4206D02468FA
:106AA400F0E7D268116821601060F2E701330A2B25
:106AB400E7D14FF0FF33ECE7F42D0020094A38B555
:106AC4000123D2F8104482F820341D4604B938BD9D
:106AD400E3685D71236820465B689847E3681C6837
:106AE400F4E700BFF42D0020037A052B10B50C4603
:106AF4000FD0437A23B1084A0849204600F042FFE8
:106B04000749204600F03EFF2046BDE8104000F053
:106B14002EBF002AF8D0F3E7BBC30200C0C30200B3
:106B240057CB0200C38873B504460D4633B1144AEB
:106B340000921449144A284600F024FF217A0529BA
:106B44001CD0637A4BB1A088FFF7E2FD0F4B1049CC
:106B540053F82020284600F015FF227A0D4BA08818
:106B640053F822600021FFF7B7FD0B490346324674
:106B7400284602B0BDE8704000F004BF02B070BD0A
:106B8400BBC30200CBC30200C3C3020088C302001C
:106B9400C0C30200F0C30200E3C302002DE9F043C6
:106BA40085B01F460C9D002306460C46904695F87A
:106BB4000C902B7329463846FFF7B4FFB8F1060F43
:106BC40009D8DFE808F00412181F283340003146C2
:106BD400284600F0D7FE002229463846FFF784FFF6
:106BE40085F80C9005B0BDE8F0832268314628464C
:106BF40000F0C8FEEFE7D4E900233146284600F050
:106C0400C1FEE8E7A36800933146D4E9002328468F
:106C140000F0B8FEDFE7E3680193A3680093314610
:106C2400D4E90023284600F0ADFED4E7236902939B
:106C3400E3680193A36800933146D4E9002328460E
:106C440000F0A0FEC7E76369039323690293E36836
:106C54000193A36800933146D4E90023284600F049
:106C640091FEB8E708292DE9F84F80460E461746ED
:106C74001C463AD8002593F80C901D73194610460B
:106C8400FFF750FFDFF884A0DFF884B0AE422ED9BE
:106C940018F805205946204600F074FE0135082DE9
:106CA400F4D11849DFF86CB0204600F06BFE4FF0C9
:106CB400000A564520D918F80A507E2D03D82846D4
:106CC40004F0EEFD00B92E252A465946204600F070
:106CD40059FE0AF1010ABAF1080FEAD1012221464C
:106CE4003846FFF701FF84F80C90BDE8F88F514651
:106CF400204600F047FED1E70349204600F042FE5B
:106D0400E7E700BFB6C30200B4C30200B2C3020087
:106D1400ACC30200B8C302002DE9F04F394E87B06E
:106D24004FF00009384B1B785FFA89F5AB4202D863
:106D340007B0BDE8F08F354BD3F800A01AF8350042
:106D44000124D6E9001EA0F12002C0F1200304FAB8
:106D540002F224FA03F3134304FA00FC009301EA59
:106D64000C030293009B0EEA03030393DDE9022361
:106D740013430AEBC50B41D0009B21EA0C012EEA18
:106D84000303C6E9001301F0D5FD1AF83550204974
:106D9400A5F12002C5F1200304FA02F224FA03F358
:106DA4001343D1E900C2AC40134004EA0C0105933B
:106DB4000024C3B2CDE90034009A0491C5F1200344
:106DC400A5F1200122FA03F302FA01F848EA0308C4
:106DD4001346AB401F46DDE90434444508BFBB42BB
:106DE4000CD1DBF804304BB19BF801104A1E514220
:106DF4005141081A414241412846984709F1010985
:106E040090E700BFE0320020B0320020E8320020DA
:106E1400D83200202DE9F0418046204800F0C0FB24
:106E2400D0BB0125A8F12004C8F1200325FA03F3FF
:106E340005FA04F41C431A4BD3E9001205FA08F5C9
:106E440001EA050602EA040756EA07001E461DD1B8
:106E5400404601F06FFD134BD3E9001288B129437A
:106E64002243C3E90012D6E900231C430E4B0B480E
:106E740019681543C6E900540022BDE8F04100F04A
:106E840049BB21EA050122EA0402EAE721EA0505F1
:106E940022EA0404C3E90054BDE8F081B8320020BA
:106EA400E0320020D8320020B4320020042A2DE938
:106EB400F34105460C4616463AD901F077FCD8B1A1
:106EC4001C4B1D491D601D4BDFF884801C701C4B3E
:106ED40000221E600023C1E900231A49C1E90023EE
:106EE400013CE4B200260327FF2C0CD1164A1748B4
:106EF400002100F0FDFA03E001F020FC0028DFD0BF
:106F040002B0BDE8F08123B205EBC30201A9927877
:106F14008DF8052015F833008DF8066042468DF88B
:106F2400047001F04DFC013CE4B20028DCD0E7E73A
:106F34000720E5E7E8320020D8320020B0320020F4
:106F4400B4320020E03200201D6D020050C4020063
:106F5400196E020070B5084D084E00242B789C422F
:106F640001D3002070BD3368012113F8340001F00F
:106F74009BFC0134F2E700BFB0320020E83200206D
:106F84001FB50021039001AA44F20100CDE90111CB
:106F940000F004F805B05DF804FB000010B572B60B
:106FA400FFF78CFDFFF7D4FB0028FBD1104B114CED
:106FB4001149E41AE408240444F00100FFF732FD07
:106FC4000E4B1B68DB0700D500BE0D4944F00200E0
:106FD400FFF728FDBFF34F8F0A490B4BCA6802F431
:106FE400E0621343CB60BFF34F8F00BFFDE700BFE8
:106FF40040C2020068C2020054C40200F0ED00E086
:1070040060C4020000ED00E00400FA0549B152B189
:10701400531E1A4007D1826001608380C26010460B
:1070240070470E2070470920704710B58468C26805
:107034008388121B934208D3C26813400268D15458
:10704400C3680133C360002010BD0420FCE78268DC
:10705400C3689A420AD08268838813400268D35C6A
:107064000B708368013383600020704705207047EC
:10707400094A537891780133DBB2994208BF00235F
:10708400117899421FBF03705078182303FB002026
:1070940014BF043000207047EC32002073B505465D
:1070A40000240DF107000E468DF8074000F094FB14
:1070B4000DF10600FFF7DCFF90B10670094B9DF857
:1070C400062045605A709DF8070000F0A9FB24B91A
:1070D400054B4FF48012C3F80021204602B070BD66
:1070E4000424F0E7EC32002000E100E0024B4FF40E
:1070F4003C6043F00103184770C4020038B50C4BE0
:107104000C4C4FF40032C3F8802001254FF4803337
:10711400C4F84833C4F808336560FFF7E7FF064B4B
:10712400A56000241C60FFF7E1FF044B1C7038BD10
:1071340000E100E00010014008340020F933002091
:10714400F8B51F4B1F491B680025C1F84051C1F811
:107154004451C1F84851C1F84C51C1F80051C1F82B
:1071640004514BB3D1F8044517490968641A24F053
:107174007F442F461A68A24209D8A41A15441A7CDF
:10718400DE691AB11F74D3E905209047AEB90F4ADE
:107194000F4B11781B788B4205D10133DBB2022BE4
:1071A40008BF0023137012780A4B43F822500A4B8D
:1071B4004FF48012C3F80021F8BD3346DAE700BF6C
:1071C4000C34002000100140083400200534002055
:1071D40004340020FC33002000E100E02DE9F04FEE
:1071E400A04AA14913780978A04D994285B03CD0B2
:1071F4000133DBB2022B08BF002313709C491278C1
:107204009C4B0F6853F822003B1823F07F43002265
:107214000B602B6816461446944613B942B12B6092
:1072240006E0196881420ED902B12B60091A19606F
:107234004FF001082B68DFF844A201930027BEB980
:10724400DFF840B266E0401A0C44D968C3F800C0C5
:10725400D3F81CE031B13A1922F07F42C3E901218D
:10726400DE611E4601227346D7E70026B046E1E7F9
:107274003446F6697E4A63681268DFF80CC2A06877
:10728400991A21F07F41614500F2A58001442160F3
:10729400012222742A680023C4E90133E361002A2D
:1072A40040F0A2802C60CAE75A1C9BF80210D2B2AC
:1072B40091428BF8002004BF00228BF80020182292
:1072C40002FB03B31A799C68022A1CD0032A12D049
:1072D400012A1FD1207CE8B9D3E90312A2605A69BC
:1072E400E2609A69644BA2611B78002B0CBF0B46C9
:1072F40003466360BEE700222B681146002B66D16B
:1073040042B12B6006E029680A468946002A59D111
:10731400002323749BF800309BF801209A42C3D1C8
:107324002B682FB9019A9A4202D1B8F1000F43D0C9
:10733400002B73D0D3F800A0504D4D4BD5F80475F5
:107344001C68DFF848813E1B98F8003026F07F4621
:1073540003369BB94FF48033C5F84433C5F804337E
:10736400474B4FF400324FF00109C3F880211A60F3
:10737400C5F80090FFF7BAFE88F80090B2452CBF1C
:107384005444A41924F07F44C5F84045D5F8043585
:10739400DB1B23F07F43E41B033324F07F44A3422D
:1073A4000AD9D5F80435C5F84035FFF79FFE344BAC
:1073B4004FF40032C3F800212F4B00221A7005B09D
:1073C400BDE8F08F94422CD09146D2699EE719749F
:1073D4000122DB6992E7D31A23F07F43834234BF4F
:1073E400C31A0023236053E721681368994213D812
:1073F400591A1160E26155E7091AD8691A4638B179
:10740400034618688842F7D3401A18601846134692
:107414002160E061DC6112E71346F2E7FFF76EFEDC
:10742400CAE74C4511D1CB692B6073B9DFF840E052
:107434000120CDE90212CAF80800CEF800300E4B44
:107444001870FFF753FEDDE902121368D269C9F818
:107454001C2012B11068034413602B68994218BFB2
:10746400012755E704340020053400200C340020A3
:1074740008340020FC330020F833002000100140C1
:1074840000E100E0EC320020FEFF7F00F933002031
:1074940008B5FFF733FE104B00200B2218809A70BA
:1074A4000E4B18600E4B18700E4B18700E4B4FF4A9
:1074B4008012C021C3F8802183F814131A6002F1EA
:1074C4008042A2F56F22C2F8080583F81113074B16
:1074D400D2F804251A6008BDEC3200200C340020D8
:1074E400043400200534002000E100E008340020CA
:1074F400074B9B784BB132B128B10368187C20B993
:1075040059745A617047072070470820704700BFBC
:10751400EC3200202DE9F7431E4FBB7805460E469A
:107524009046A3B398B304292FD943697BB3437C12
:107534000024012B0DF107000CBF8946A1468DF8EC
:10754400074000F049F90DF10600FFF791FDD0B1B5
:1075540001230370104B4560D3F80435C0E9049847
:10756400C0E902369DF806307B709DF8070000F0F4
:1075740057F924B9094B4FF48012C3F8002120466F
:1075840003B0BDE8F0830424EFE70724F7E70824F9
:10759400F5E700BFEC3200200010014000E100E0FC
:1075A400064A92783AB130B1426922B1002202749B
:1075B4000221FFF773BD0820704700BFEC320020A2
:1075C4000648074A03780749D35C012213B1043003
:1075D40001F0B4BE0C3001F09DBC00BFE8290020CE
:1075E40074340020383400200648074A03780749D9
:1075F400D35C012213B1043001F050BE0C3001F011
:1076040033BC00BFE8290020743400203934002042
:1076140037B50578012D05D0002D30D0022D23D0AB
:1076240003B030BD43681C4C19782046FFF7FDFCBD
:1076340078B18DF800500190184B68461B68984744
:10764400A168E368A2885B1A9A4209D3FFF7B8FFDE
:10765400E6E7A268E3689A42F2D08DF80000EBE70F
:107664000F4B01221A70DBE7C3688DF800500193B9
:10767400FFF7A6FF094B68461B689847D0E70949FE
:107684000948FFF7E4FC10B9FFF7AEFFC8E703238E
:107694008DF80030EEE700BF1434002010340020D1
:1076A400243400203934002028340020F0B51F464B
:1076B400234B89B006461A600C4600293DD08A88BF
:1076C40020480968FFF7A2FC002834D1A289A168E8
:1076D4001D48FFF79BFC00282DD11C4D0FCD6C4697
:1076E4000FC495E80F0084E80F0073690693337C98
:1076F400174A18488DF81C70003318BF01238DF801
:107704001430737C002B14BF0E2300238DF8153026
:10771400F3680293B368039333680193694673680B
:10772400009300F047FF30B90B4B187033680133F6
:1077340001D0FFF745FF09B0F0BD0720FBE700BF0C
:1077440010340020143400202834002078C40200AF
:1077540015760200E82900202434002070B5084C76
:10776400014608482678FFF772FC054636B1002327
:107774002370FFF725FF08B1FFF702FC284670BD10
:10778400243400201434002010B501460E48FFF7BD
:107794004CFC0446A8B90D480D4A0378D35C63B188
:1077A400043001F0BFFD60B90A490748FFF74FFCF8
:1077B40038B9BDE81040FFF717BF0C3001F09EFB4D
:1077C400F1E7204610BD00BF28340020E82900203E
:1077D400743400203934002070B5EFF3108672B68B
:1077E4000C4A946801239CB993600B4B0B4DD3F85E
:1077F400801029401160C3F88050D3F88410516080
:107804004FF0FF32C3F88420047006B962B670BD2D
:107814000370FAE73C34002000E100E0FC06FFBD01
:10782400084B9A6810B55AB150B9EFF3108172B68B
:10783400054A1C6814605C685460986001B962B6BB
:1078440010BD00BF3C34002000E100E050E8002FF0
:107854000B4640E8003C9CF0000FF7D110467047FF
:1078640050E8003F43EA010240E8002C9CF0000F7E
:10787400F6D11046704750E8002F02EA010340E8B1
:10788400003C9CF0000FF6D11046704750E8003FD2
:1078940003EB010240E8002C9CF0000FF6D11046E7
:1078A400704750E8003FA3EB010240E8002C9CF035
:1078B400000FF6D1104670470121FFF7D1BF002118
:1078C400FFF7D9BF10B590B1D0E9012301689B1A25
:1078D400DBB20A60013BDBB2FF2B026802D100205D
:1078E400107110BD11684C1C14600B70F2E70E206F
:1078F400F7E737B5054600240DF107008DF807407A
:10790400FFF76AFF2A686B68116899420ED9481E0E
:10791400106011F8014CEB68298A01FB0434AB6850
:1079240011791B1ADBB2994238BF13719DF8070015
:10793400FFF776FF204603B030BD37B50546002378
:107944000DF107000C468DF80730FFF745FF2A6854
:107954001368591C1160E968641A298AB4FBF1F4AC
:107964001C709DF80700FFF75BFF03B030BD826811
:1079740010B504462AB14369016800699847002399
:10798400A36010BD0EB403B5039921B104AB01AAE1
:10799400019300F075F802B05DF804EB03B0704792
:1079A4000A2938B504460D4602D10D21FFF7F8FF28
:1079B400A3682268591CA160D554D4E901329A42C3
:1079C40004D32046BDE83840FFF7D1BF38BD0000DE
:1079D4002DE9F84F9946DDE90A4317468246884661
:1079E4000A460126BA420FD24E4538BF4E4613F01E
:1079F400010B01D164B900240125B9F1010F1AD991
:107A040009F1FF397D43F8E7B2FBF7F20136E9E704
:107A14009B070ED5B9F1000F0CBF30252025A642D7
:107A2400EAD2013C29465046FFF7BAFF002CF6D1B2
:107A3400E1E72025F3E7B8FBF5F39F42E2D9DFF84D
:107A44003C90B8FBF5F3504619F8031005FB138876
:107A5400FFF7A6FFB5FBF7F3BD4207D2BBF1000F5A
:107A640002D00CB1A64203D3BDE8F88F1D46E8E767
:107A740020215046013CFFF793FFF2E798C402002F
:107A84002DE9F74F054617468846002900F0318155
:107A940018F8011B49B92B7B002B00F02A812846DA
:107AA40003B0BDE8F04FFFF762BF252940F0C08066
:107AB400002698F800302D2B424608F1010823D007
:107AC400302B24D02B2B25D000242A2B02F10101AA
:107AD40023D13B681A1D1B683A601C440A4613787C
:107AE4002E2B26D101324FF0000A104610F8011B4C
:107AF400A1F1300CBCF1090F1DD80A2303FB0A13B2
:107B0400A3F1300A0246F0E746F00106D1E746F059
:107B14000206CEE746F00406CBE711F8013CA3F1D8
:107B240030000928DBD80A2202FB0434303C0A4620
:107B3400CBE74FF0000A12F8011B01F0FB006828A4
:107B44009046F8D069290ED04AD8582964D006D86E
:107B540025296DD098F80030002B99D19BE7632933
:107B640062D06429F6D13A68D2F80090111D89EAEE
:107B7400E9723960A2EBE9724FF0010B092A5BDC70
:107B8400D34538BFD3462CB1B9F1000F01DB7107DF
:107B940000D5013CB20702D5BAF1000F04D0F307B7
:107BA40002D4002C4ED10024B9F1000F52DAC9F1ED
:107BB40000092D212846FFF7F3FE06F00302022AEE
:107BC40005D1BAF1000F02D1002C47D10024CDE930
:107BD400004653460A2249462846FFF7F9FEB9E70C
:107BE40073294CD014D87029B4D13B681A1D3A605B
:107BF400302128461C68FFF7D3FE78212846FFF77A
:107C0400CFFE00220823CDE9003221461022E3E70B
:107C140075292BD078299DD139680A1D3A60CDE9A0
:107C240000465346102228E03B681A1D19783A6032
:107C34002846FFF7B5FE8DE70A230BF1010BB2FBD3
:107C4400F3F29BE7A345AFD220212846013CFFF77E
:107C5400A7FEA6E77007B0D52B21ABE7A345B6D2A4
:107C640030212846013CFFF79BFEADE73968CDE99A
:107C740000460A1D3A6053460A220968ACE73B688D
:107C84001A1D3A60F107D3F8009020D4B9F1000F1F
:107C940025D0484603F0F3FE0646B44200D9C4B9E1
:107CA40009F1FF3920E028460136FFF779FE19F87B
:107CB40006100029F7D1A642BFF44CAF002C3FF4C4
:107CC40049AF20212846013CFFF76AFEF3E700266E
:107CD400EDE720212846013CFFF762FEDDE74E4632
:107CE400DBE72846FFF75CFE19F8011F0029F8D1ED
:107CF40030E703B0BDE8F08F2DE9F047B0F8069007
:107D04004479D2F800A09DF8208009FB04F4043CD7
:107D140006460AEB0300A0420F4688BFA4EB030A01
:107D2400191DC2F800A0B1FBF9F509FB15114DB9F5
:107D3400A9EB0104544528BF5446BAF1000F04D1FD
:107D4400BDE8F0873668013DF1E704317B1970180E
:107D54002246B8F1000F0ED001461846AAEB040AD9
:107D640003F00FFED145254436684C464FF0000120
:107D740028BF5446E1E71946F0E7FFF7A3BDF8B57D
:107D840046790146721E0546002393422D6803D3AB
:107D94000024A64202D8F8BD0133F6E70F6828464E
:107DA400FFF7CBFD01343946F3E72DE9F843068AA2
:107DB400CD1C0746FFF79DFD043E35440446B5FB44
:107DC400F6F5F0B14FF48073EDB28380C680013DC7
:107DD400076081464FF00008A84512D23846FFF7E5
:107DE40088FD064648B163790133637108F10108DF
:107DF400C9F8000007608146EEE72046FFF7BFFFA1
:107E040034462046BDE8F88301210430FFF73EBD27
:107E140010B5012104460430FFF743FD10F0FF0FB5
:107E240004D12046BDE81040FFF7A9BF10BD1FB51F
:107E340003920022009203AAFFF75EFF05B05DF8EB
:107E440004FB1FB503920122009203AAFFF754FF1B
:107E540005B05DF804FB33DF704741DF7047000075
:107E6400064B10B500241C70054B1C60BFF35F8FDC
:107E74000449054800F093F8204610BD5134002011
:107E840054340020A8C402004834002007B500235D
:107E94000DF107008DF80730FFF79EFCF1EE103A64
:107EA40023F09F03E1EE103ABFF35F8F094B4022AA
:107EB400C3F884219DF80700FFF7B2FC03F070FAC1
:107EC40020B1FFF7CAFF03B05DF804FB20BF40BF39
:107ED40020BFF8E700E100E070B5264C054601211B
:107EE4002046FFF7B3FCBFF35F8F264638B9042D55
:107EF4000AD0214B1A781AB1BFF35F8F206070BD8E
:107F04001E4A157001221A701D4C1C4D6368BBB9C2
:107F1400FEF7D4FDFEF71CFC0028FBD1174B1B78A1
:107F2400023B012B14D8BFF34F8F1649164BCA6876
:107F340002F4E0621343CB60BFF34F8F00BFFDE751
:107F44001B682878984788B1204600F032F8DDE7AE
:107F540003F026FA08B1FFF77EFF4FF080430122B9
:107F6400C3F80025BFF34F8F20BFFDE7BFF35F8F3A
:107F74003060C4E7543400205134002050340020D1
:107F84004834002000ED00E00400FA058368002274
:107F94005A609A60C3E90422DA601A6070470B6879
:107FA4004A684360934208BF0023016008BF4360EE
:107FB4007047436843B10268916852680B44934226
:107FC400436004BF002343607047000010B50D49AF
:107FD400A1F59472914201D800200FE08B1ADB10B6
:107FE40003EBD3735B1002EBC30452F833308342C8
:107FF40005D802D204F10802ECE7606810BD2146FE
:10800400E8E700BFF8C5020008B5FFF7DFFF024B41
:10801400002808BF184608BDBDC4020010B50446B8
:10802400C0B2FFF7B1FB204610BD00000C4B1B781B
:10803400062B10D10B4B1B681A070CD10A4B18687E
:1080440000F0F003302B08D000F0E000A0F1400372
:10805400584258417047002070470120704700BFC4
:10806400E00F00F0E40F00F0E80F00F0094B1B787C
:10807400062B0CD1084B1B681A0708D1074B18684C
:1080840000F0F000A0F1300358425841704700203E
:10809400704700BFE00F00F0E40F00F0E80F00F0BD
:1080A40008B5FFF7C3FF28B17D4B7E4A1B68C3F3B5
:1080B40004231360FFF7DAFF10B17B4B7B4A1A608D
:1080C400FFF7B4FF28B17A4B7A4A1B68C3F34233F3
:1080D4001360FFF7CBFF20B1774AD36823F0807396
:1080E400D360FFF7A3FF40B14FF080430022C3F8F1
:1080F4000C21C3F81021C3F83825FFF7B7FF10B1DE
:108104006E4B03221A60FFF7B1FF40B16C4B05229E
:108114001A6001229A6700229A603F225A60694BD2
:108124001B78062B50D1684B1B6819074CD1674B41
:108134001B6803F0F003502B46D14FF08052644B80
:10814400D2F80414C3F82015D2F80814C3F824157F
:10815400D2F80C14C3F82815D2F81014C3F82C154F
:10816400D2F81414C3F83015D2F81814C3F834151F
:10817400D2F81C14C3F84015D2F82014C3F84415DF
:10818400D2F82414C3F84815D2F82814C3F84C15AF
:10819400D2F82C14C3F85015D2F83014C3F854157F
:1081A400D2F83414C3F86015D2F83814C3F864153F
:1081B400D2F83C14C3F86815D2F84014C3F86C150F
:1081C400D2F84424C3F87025FFF730FF28B1414B9F
:1081D400414A1B6803F04F031360FFF727FF48B1C0
:1081E4004FF08043D3F80024D20744BF6FF001025C
:1081F400C3F80024394B1B68062B08D1384B1B6885
:10820400062B01BF374A136843F480631360364A70
:10821400D2F8883043F47003C2F88830BFF34F8F2C
:10822400BFF36F8F4FF01023D3F80022002A03DB33
:10823400D3F80432002B2FDA2C4B0122C3F8042587
:10824400D3F80024002AFBD04FF010221521C2F8E5
:108254000012D3F80024002AFBD04FF0102315227B
:10826400C3F80422214B1A46D3F800140029FBD08A
:108274000021C3F80415D2F80034002BFBD0BFF35F
:108284004F8F19491A4BCA6802F4E0621343CB605A
:10829400BFF34F8F00BFFDE7164B174A1A6008BDA6
:1082A400240300104035014074C007400DF0ADBAFE
:1082B400440200103C050040F0ED00E0A005004041
:1082C40010560040E00F00F0E40F00F0E80F00F05B
:1082D40000C0004058020010E40E004030010010BD
:1082E400340100103C17004000ED00E000E00140C4
:1082F4000400FA05FC2900200090D003054A4FF041
:10830400A043105CD3F8043523FA00F0C04300F016
:1083140001007047B6C90200044B1A5C0123934064
:108324004FF0A042C2F80C35704700BFB6C9020036
:10833400044B1A5C012393404FF0A042C2F8083565
:10834400704700BFB6C9020008B50020FFF7F0FF70
:108354000120FFF7EDFF0220FFF7EAFF0320BDE84D
:108364000840FFF7E5BF08B50020FFF7D5FF01205F
:10837400FFF7D2FF0220FFF7CFFF0320BDE808403C
:10838400FFF7CABF074A4FF0A041105CD1F804358B
:108394000122824022EA03001340C1F80805C1F813
:1083A4000C357047B6C90200054A4FF0A043105C73
:1083B400D3F8103523FA00F0C04300F001007047F1
:1083C400B2C902000D2809D00E2809D00F2809D0FF
:1083D40010280CBF03204FF0FF3070470020704777
:1083E4000120704702207047014B185C704700BFA2
:1083F400B2C90200C20708B501460CD54FF0A0432C
:108404000322C3F84427C3F84827C3F84C27C3F80A
:108414005027FFF799FF8B070AD54FF0A0430C2292
:10842400C3F83427C3F83827C3F83C27C3F84027D8
:1084340008BD000038B5074C051E04F1080318BF39
:108444001C4623682BB11A6822605B68284698474B
:10845400F7E738BD6034002020B9054B01225A707B
:10846400FFF7E8BF012802D1014A9070F8E770478E
:108474005834002020B9034B01225A70FFF7DABFA9
:10848400704700BF5834002038B50B4C237883B9AB
:108494000A486360A3602361E36000F0C9F80546FD
:1084A40002F07EFF08B900F0CFF8012323702846BC
:1084B40038BD8525FBE700BF583400205D840200E9
:1084C40037B50B4C00230DF107008DF80730FFF78B
:1084D40083F9E368013BE360E56815B900F0C6F889
:1084E400A5709DF80700FFF79BF903B030BD00BFEE
:1084F40058340020012813B509D018B103281CD022
:1085040002B010BD0F4B0122C3F88020F8E70E4CD7
:1085140000230DF107008DF80730FFF75DF923788C
:108524000BB9FFF7B1FFE3689DF807000133E3607F
:108534000123A370FFF774F9E2E700F085F8FFF771
:10854400BFFFDDE700E100E0583400201FB50378E9
:108554008DF800304368019383688DF80830C36850
:108564000393054A054B684653F8213052F821100D
:10857400984705B05DF804FB6C340020703400208B
:108584001FB503788DF800304368019383688DF834
:108594000830C3680393054A054B684653F82130F5
:1085A40052F82110984705B05DF804FB6C340020A4
:1085B40070340020F0B5194B067891F81DE043F8AB
:1085C4002620174B94460A6943F82620154B03F8D6
:1085D40006E00C4607460FCC89B06D460FC594E8FB
:1085E4000F0085E80F000496BEF1000F0AD0BCF11D
:1085F400000F0D4A694608BF0022381D00F08CFDAB
:1086040009B0F0BDBCF1000F084A694608BF00225A
:1086140007F10C0000F06EFBF2E700BF703400209D
:108624006C340020743400205185020085850200DA
:10863400044A137923B901211060918018467047C8
:108644008520704778340020074B1A68D2075FBF33
:10865400C02283F8002301221A604FF080430122D4
:10866400C3F81825704700BF00E100E0044B012265
:108674001A604FF08042D2F81834DB03FBD4704701
:108684000C000040154B07B51A687AB100221A6035
:108694001B680093009B4FF080430122C3F808231A
:1086A4000F4B587910B95A711B6898470D4B1A68CB
:1086B40082B100221A601B680193019B4FF0804332
:1086C4000222C3F80823064B1B68012003B05DF89F
:1086D40004EB184703B05DF804FB00BF0001004041
:1086E400783400200401004000F1804000F5C040CF
:1086F400002382B0036003680193019B02B07047BA
:10870400800000F1A040D0F8003723F44033C0F8D3
:108714000037D0F8003743EA0141C0F8001770472A
:10872400054B4FF0FF32072843F8202084BF1B1865
:1087340083F84820704700BF8034002010B5174CE0
:1087440094F8583043BB04F130032021FF2201394F
:1087540011F0FF0103F8012BF9D1C8B2FFF7E0FFD4
:1087640001310C29F9D1042200210D4803F032F91A
:108774000C4BC02283F8062340221A604FF4BE70CB
:10878400FFF7B2FF084B4FF00042C3F80423012364
:1087940084F85830002010BD0820FCE78034002005
:1087A400D434002000E100E000600040034B93F863
:1087B4005800003018BF0120704700BF80340020EB
:1087C400F0B5374B1C1894F93040002C1C4664DA81
:1087D4008D78C5F34005002D0BBF082300230C261C
:1087E4000826B34201D10420F0BD54F823700137A8
:1087F4003FD1261844F8232086F8303015B9E21802
:1088040082F848008A78550713D4D60733D58200F6
:1088140002F1A042D2F8005725F00205C2F8005731
:10882400204EC50800F007070122BA40775D3A439D
:1088340072558A780D7812F0020225D09B0003F15C
:10884400804303F5C0430202D3F8101521F44731E5
:1088540021F44071C3F810152D04D3F8101502F457
:10886400F85205F440352A430A43C3F81025002082
:10887400BAE70133B5E74D7800F5E0724FF0A04652
:10888400AD0046F82250CBE7083B234493F8501040
:1088940041EA851583F85050E9E70820A4E700BFB2
:1088A40080340020D434002038B5204C251895F9A4
:1088B4003020072A18DD224492F848309B09032B04
:1088C4000DD14FF0A043D3F81035C34013F0010F7E
:1088D4000CBF02210321BDE83840FFF711BF012B73
:1088E40014BF03210221F6E7D3B2072B1CD893004F
:1088F40003F1804303F5C043D3F8100540F00100B1
:10890400C3F8100502F14000800080B2FFF7ECFECE
:1089140051B195F9303054F823302BB1012303FAC7
:1089240002F2034BC3F8042338BD00BF8034002097
:10893400006000404FF0A043D3F8103523FA00F054
:1089440000F00100704700002DE9F04F85B00024CD
:108954005A4D01944FF48072012102F1804303F5D2
:10896400C04390B21B68012B06D1D5F804330B42E7
:1089740002D0FFF7B9FE0C430432B2F5907F4FEA00
:108984004101EAD14E4B1B68012B0AD14FF4BE7052
:10899400FFF7AAFE4FF0A04344F00044D3F810358B
:1089A400019314F0FF0F1AD0464F002501263442DC
:1089B40010D0AB0003F1804303F5C043D3F8100596
:1089C400D3F8101557F8253023B1C1F30141C0F392
:1089D400042098470135082D4FEA4606E7D1002CBC
:1089E40064DA00224FF0FF33CDE90223354D01272D
:1089F4004FF0000A344E54464FF0A04816F9012BAC
:108A0400531C46D0D2B222F0C0094FEAD90104A8BF
:108A1400084402F0070310F804CC07FA03F31CEA35
:108A2400030F36D005EB090C92099CF930C055F8B8
:108A34002CB0BBF1000F0AD1032A2AD10DF1080E84
:108A44001EF801C04CEA030C0EF801C001E0032A31
:108A5400F4D009F5E07110F80C0C58F82110184204
:108A6400C1F3014105D0022913D1032A0BD11146C8
:108A740004E003290DD1032A05D102214846FFF75A
:108A84003FFE0134E4B2BBF1000F02D01146484668
:108A9400D8470AF1010ABAF1040FAFD134B14FF04B
:108AA400A043019AD3F81035934202D105B0BDE832
:108AB400F08F0193029B03939AE700BF006000408C
:108AC4007C61004080340020D0340020014B1B68BE
:108AD400184700BFDC3400200E4B984237B50D46D2
:108AE40002D0002003B030BD00230DF107008DF843
:108AF4000730FEF771FE084B1C7914B901221D6082
:108B04001A719DF80700FEF78BFE002CE9D01120A6
:108B1400E8E700BF00200040DC340020002343507D
:108B240082B043580193019B02B070470A4610B5C6
:108B34004FF48E71FFF7F2FF136A9168C95C136AF0
:108B440001331362C0F81C1510BD024608B54FF47A
:108B540092710068FFF7E2FF4FF484711068FFF729
:108B6400DDFF136801221A6008BD8B690A4610B53F
:108B74004FF4847123B9FFF7D1FFD0F8183510BD35
:108B8400FFF7CCFF536AD168D0F81805C854536A6C
:108B940001335362F3E700001FB501238DF8003061
:108BA400044BCDE90110D3E900126846904705B0A3
:108BB4005DF804FBE434002030B54C4AD2F80433A9
:108BC40013F4007F85B015464FD0D2F82431002B22
:108BD4004BD04FF492711046FFF7A0FF4FF401738E
:108BE400C2F80833424B93F8291009B901215160A6
:108BF4003E4902228DF80020D1F88024C1F8802457
:108C040003929A690292DA6801920022C3E9062269
:108C14006846D3E9001290473448D0F81C315BB160
:108C240033490A6A4B699A420A464BD291F8283072
:108C3400002B47D1FFF77AFF2C4AD2F8443193B185
:108C44004FF4A2711046FFF769FF294B93F82910DE
:108C540009B1012111609A692AB100229A61586A06
:108C6400D968FFF799FF05B030BDD5F804335B0729
:108C7400D2D5D5F80831002BCED01D4C1B48214647
:108C8400FFF773FF636AA2699A422346C4D1E2697B
:108C9400E1684AB12369E3600023606AA261E36189
:108CA4006362FFF779FFB7E794F829200AB9012234
:108CB4006A600E4A4FF40170C2F8080300229A61F8
:108CC400586AEEE74FF48E710848FFF727FF5169A1
:108CD4000029B1D00023029191688DF800300191F0
:108CE40053616846D2E900139847A5E70020004085
:108CF400E43400202DE9F843564F047991462C22A0
:108D040002FB0472064692F82A200D46002A40F01F
:108D14009A8051490068FFF7DFFE8046002840F042
:108D2400958029683368481C0BD04FF0A04001227D
:108D34008A40C0F8082501F5E0724FF0030C40F8B2
:108D440022C06868421C1FBF00F5E0724FF0A04CBF
:108D54004FF0000E4CF822E0AA6995F814C0C3F84D
:108D640024256A7DBCF1010F4CEA0202C3F86C258C
:108D7400C3F81405C3F80C151DD1AA68511C1FBFF4
:108D840002F5E0714FF0A0404FF0000C40F821C014
:108D9400E968481C0BD04FF0A04C01208840CCF867
:108DA400080501F5E0704FF0030E4CF820E0C3F81D
:108DB4000815C3F810252C236343FA18C2F804904D
:108DC4002A69FA50B9F1000F2AD04FF48E71306835
:108DD4002D7FFFF7A3FE30684FF4A271FFF79EFECC
:108DE40032681E4BC2F80433120B51B20029A8BFDB
:108DF40001F160404FEA4513BABF194802F00F056C
:108E040000F56140DBB2B4BF435580F8003302F093
:108E14001F02012303FA02F24909124B43F82120ED
:108E240033680422C3F800252C2303FB04730022B7
:108E3400C3E9062283F829205A61012283F82A20F3
:108E44004046BDE8F8834FF00808F9E74FF01108F1
:108E5400F6E700BFE4340020BD8B0200800002006E
:108E640014ED00E000E100E02DE9F843224F06791B
:108E74004FF02C0909FB067480466569002D37D133
:108E84006261A16025624FF48E71006884F82850F5
:108E9400FFF744FED8F80000012383602146FFF762
:108EA40045FE6368A1462BBBD8F80050226A63696B
:108EB4009A4212D3D8F80030D3F81C21002AFBD0F0
:108EC4000122DA6000202C2303FB06760023736161
:108ED400BDE8F88394F8283043B9D5F81C31002B49
:108EE400F8D049462846FFF721FEDFE70F20EAE7DE
:108EF4001120EDE72846EBE7E43400200379044A27
:108F04002C2101FB03235869003018BF012070474E
:108F1400E43400202DE9F843384E05792C2303FB73
:108F2400056307465C6824B103684FF40170C3F815
:108F340008032C2303FB0563986950B1D869002802
:108F44003ED024B13B684FF40172C3F804231120CE
:108F540034E09A61D9605862D8612C2303FB05631D
:108F640093F829301BB910B93846FFF7EEFD4FF0DE
:108F74002C0909FB05683868D8F80430002B34D173
:108F84004FF4A271FFF7CAFDC1463868D0F8243106
:108F9400D0F80821D0F84441B2B90CB9002BF4D070
:108FA4002C2202FB05650022AA611BBB24BB95F899
:108FB40029103B680122B1B11A600020BDE8F88392
:108FC4001961DA610120C8E7002BE9D1002CE7D14F
:108FD4004946FFF7CAFDD8F82430D8F818209A4239
:108FE400D3D82346DCE75A60E7E74FF40173C0F8AF
:108FF4000433E2E70320E1E70F20DFE7E434002055
:109004000023435082B043580193019B02B0704740
:109014001FB501238DF80030044BCDE90110D3E9CD
:1090240000126846904705B05DF804FB1035002037
:109034007FB5374AD2F82461002E48D010464FF449
:109044009271FFF7DDFF02238DF80030D2F88034EF
:10905400C2F880340393D2F83C3502932D4BDA687E
:1090640001920022C3E906226846D3E90012904720
:10907400274AD2F844317BB14FF4A2711046FFF76E
:10908400BFFF244B996939B10021C3E90611D9689E
:10909400D2F83C05FFF7BCFF1D4AD2F82031A3B13A
:1090A4004FF490711046FFF7ABFF1A4B596961B149
:1090B400D2F84C150291002299688DF80020019194
:1090C4005A616846D3E90012904704B070BDD2F8E3
:1090D4001031002BCCD04FF488711046FFF790FF6D
:1090E4000C4BD2F83C0599698842C1D1DC69D96836
:1090F40064B1D2F8005225F02005C2F800521A6972
:109104009C61DA60DE61FFF783FFB1E79C61FAE7F7
:1091140000200040103500202DE9F8435A4F06790D
:109124009146242202FB0672044692F820200D4642
:10913400002A40F0A28055490068FFF7CDFC804624
:10914400002840F09D8029682368481C0BD04FF00C
:10915400A04001228A40C0F8082501F5E0724FF0D2
:10916400030C40F822C06868421C1FBF00F5E0727F
:109174004FF0A04C4FF0000E4CF822E0AA6995F88D
:1091840014C0C3F824256A7DBCF1010F4CEA020225
:10919400C3F86C25C3F80C15C3F814051DD1AA68CF
:1091A400511C1FBF02F5E0714FF0A0404FF0000CBE
:1091B40040F821C0E968481C0BD04FF0A04C0120B6
:1091C4008840CCF8080501F5E0704FF0030E4CF828
:1091D40020E0C3F80815C3F8102524237343FA18B4
:1091E400C2F804902A69FA50B9F1000F34D04FF450
:1091F400887120682D7FFFF703FF4FF4907120687A
:10920400FFF7FEFE4FF492712068FFF7F9FE206825
:109214004FF4A271FFF7F4FE22681D4BC2F8043329
:10922400120B51B20029A8BF01F160404FEA451367
:10923400BABF184802F00F0500F56140DBB2B4BFB5
:10924400435580F8003302F01F02012303FA02F2AF
:109254004909114B43F8212023680822C3F800254B
:10926400242303FB06730022C3E906225A61012268
:1092740083F820204046BDE8F8834FF00808F9E75A
:109284004FF01108F6E700BF1035002035900200BA
:109294001003020014ED00E000E100E001F060437F
:1092A400B3F1005F2DE9F041074632D11C4B06793A
:1092B400242505FB063598466C6964BB6A61A96080
:1092C40000684FF49071FFF79BFE4FF4AC7138685F
:1092D400FFF796FE3B686A69A968C3F84415C3F8AA
:1092E400482501229A606A68BAB9D3F82011D3F8E4
:1092F400582149B9002AF8D00F20242303FB0686FD
:1093040000237361BDE8F081002A14BF0F20002000
:10931400F3E71020F6E71120F4E72046F2E700BF58
:10932400103500200379044A242101FB03235869E2
:10933400003018BF0120704710350020F8B501F047
:109344006043B3F1005F04460F465FD10379304DAB
:10935400242101FB0351486820B121684FF40476AD
:10936400C1F80863242101FB03539E6956B1D969EE
:1093740000293AD020B123684FF40472C3F80423BF
:10938400112031E09A61DF60DE614FF4887120685A
:10939400FFF736FE4FF4A2712068FFF731FE236811
:1093A400C3F83475C3F838251EBB01221A6021792D
:1093B400242202FB0152526812BBD3F81001D3F8E5
:1093C4004421D3F82441104302D1002CF5D00246A5
:1093D400242303FB015500239C4214BF0320184699
:1093E4009A42AB6118BF0F20F8BD1F61DA610126F4
:1093F400CBE7D3F8002242F02002C3F80022D6E7DC
:109404004FF40472C3F804230020EDE71020EBE7C7
:1094140010350020026813685268934291BFD01A35
:1094240080680130801888BFC01A70472DE9F8435E
:1094340003681D685C68A54284BF836801331746CE
:10944400884694BF641B5C1BC2684168BC420646E4
:1094540005FB02110CD37A43404602F092FAB3683A
:109464003D449D4288BF002533681D60BDE8F883F4
:1094740004FB02F94A46404602F083FAF268716836
:109484003C1B624308EB090002F07BFA33681C6062
:10949400ECE773B505460E461446AAB100230DF158
:1094A40007008DF80730FEF797F92846FFF7B2FF5B
:1094B400844228BF0446224628463146FFF7B6FFB9
:1094C4009DF80700FEF7ACF9204602B070BD13B555
:1094D400002304460DF107008DF80730FEF77CF9F0
:1094E4002046FFF797FF04469DF80700FEF798F91A
:1094F400204602B010BD10B58468FFF7E8FF201ABB
:1095040010BD2DE9F047044616468946FFF7F3FFE0
:109514002368A2685D6802F101088246A8EB05078A
:109524005868E2686368B74202FB003017D372439D
:10953400494602F026FA2268A168536833448B42F4
:1095440096BF53680026F61856602046FFF762FF60
:1095540023689A68824238BF9860BDE8F087574311
:109564003A46494602F00DFA3544E2686068A5EBD4
:1095740008056A4309EB070102F003FA2268B245C1
:109584005560E2D25368A1688B4234BF0133002393
:109594001360DAE773B505460E461446AAB10023F4
:1095A4000DF107008DF80730FEF716F92B7C7BB917
:1095B400AB689C4228BF1C46284622463146FFF72A
:1095C400A0FF9DF80700FEF72BF9204602B070BDFE
:1095D4002846FFF790FF844228BF0446ECE70220A8
:1095E400FEF7D0BE2DE9F04781460D46FEF7EAFEB0
:1095F4000328044604D8012D04D025B3022D2FD00E
:10960400BDE8F087194D47003A18A918AE5C4A78AE
:1096140052B1DFF86880164842464FF40041FDF726
:1096240079FF08B988F800903B192B449A78114BBC
:109634001A55002EE4D0104B1B68002BE0D03046A6
:10964400BDE8F04718470A48FDF7AAFF074B04EBAB
:10965400440213449E78074B1B5DB342D0D1E8E724
:10966400024B00EB40041C446678E2E79835002086
:1096740058350020B1350020AC35002034350020A9
:1096840002210078FFF7AEBF08B5094B1B7853B130
:109694000020FEF74DFE0120FEF74AFE0320BDE840
:1096A4000840FEF745BEBDE80840FEF74DBE00BFCA
:1096B40035350020F8B57B4C237805461BB10023D3
:1096C4002370FFF7E1FF172D00F28880DFE805F033
:1096D4000C17174354657680888D888D959A9A9ACD
:1096E4009A9AC4C9D1D9E4E4FFF7CEFF6E48FDF7D6
:1096F40057FF6E4B002204461A702046F8BD002026
:10970400FEF7FCFDF8B10020FEF712FE022D0CBF9F
:109714004FF4E1614FF47A61644B1D704FF40040E3
:109724004FF4FA740025E0FB01454FF47A720023EC
:109734002046294601F0BEFF002201465A48BDE8F2
:10974400F840FDF7E7BEFEF7E7FD022D0CBFC82188
:109754004FF4C871E0E70020FEF7D0FD40B10020CF
:10976400FEF7E6FD4FF44871504B03221A70D5E71B
:10977400FEF7D2FDC821F7E70020FEF7BFFD38B1A0
:109784000020FEF7D5FD4FF47A61484B0422EDE743
:10979400FEF7C2FD4FF4C871F7E70020FEF7AEFDF7
:1097A40048B10020FEF7C4FD404B05221A7041F673
:1097B4009A110022C2E7FEF7AFFDF5E70020FEF79D
:1097C400E1FD3A4B06221A70002240F6CD41B5E77E
:1097D4000020FEF7A1FD354B07221A7000248CE708
:1097E40001202070FEF7CEFDEEE701202070FEF789
:1097F400C9FD00224FF48041A0E7FEF7B4FD2B4BD6
:109804000C22EAE72A482B4EFDF7CAFED5F11105D2
:1098140004461CD0D8B9012D13D0C8235D434FF49E
:1098240000474FF4FA7000214FF47A720023C7FB0B
:10983400050101F03FFF224601461D48FDF76AFE7F
:1098440004460220FEF768FD0123337055E7022029
:10985400FEF76EFD0023F8E7FFF716FF134B122205
:10986400BBE7FFF711FF0020FEF756FD0F4B132255
:10987400B3E7FFF709FF0120FEF74EFD0B4B14225F
:10988400ABE7FFF701FF0020FEF746FD0120FEF7DE
:1098940043FD064B1522A0E7FEF765FD034B1D7043
:1098A4009CE700BFA835002078350020B0350020A3
:1098B4003835002035350020044B1B68DB0703D501
:1098C400034B1878FFF7F6BE704700BFA43500209D
:1098D400B0350020032801D8FEF766BD002070478C
:1098E400044B1B6813F0010301D0FFF7E3BE1846D5
:1098F400704700BFA435002038B51C4B18601C4BC2
:1099040010F00204054619601AD01A4B1A480E22A8
:109914001A700F22DA7010229A7111225A720421DD
:1099240040F26662FDF7C2FA044648B9FDF712FB3D
:10993400044628B90146114A1148FDF7D9FD0446E9
:10994400EB0711D50120FEF755FD6CB921460D4AF0
:109954000D48FDF7CDFD044630B90C4A0C480121F1
:10996400BDE83840FDF7C4BD204638BDA43500200D
:10997400AC35002098350020DCC902008596020031
:1099840000CA0200BD98020004CA0200E395020066
:10999400FCC90200032813D8012A0BD1012908D1DC
:1099A40000F10E02D2B200EB40000C4B1A5400201E
:1099B400704700220129F6D04BB24BB1022901D0E5
:1099C40007207047054B00EB400018444270EEE757
:1099D400024900EB400008448270E8E79835002013
:1099E400032808B512D8FEF7FFFC800000F1A04060
:1099F400D0F8003723F44033C0F80037D0F80037EC
:109A040043F44033C0F80037002008BD0620FCE7CB
:109A140008B5012202210020FFF7BCFF08B1072886
:109A240010D1072202210120FFF7B4FF08B1072853
:109A340008D100210A220846FFF7ACFF10B107281D
:109A440008BF002008BD00000388102B10B502D009
:109A5400112B1ED010BD1A4C2168B1B90122084641
:109A6400FFF798FF08B1072824D10722022101201B
:109A7400FFF790FF08B107281CD10422022100201F
:109A8400FFF788FF08B1072814D123680133236046
:109A9400E0E70B4A1368013B1360002BDAD1FFF7B0
:109AA400B7FF0028D6D0074B1B68002BD2D0BDE8E7
:109AB40010401847034B1B68002BE6D09847E4E797
:109AC400BC350020B835002008B50020FFF788FF1A
:109AD40008B1062806D10120FFF782FF10B106283D
:109AE40008BF002008BD00000D4B10B518600C46DF
:109AF40029B10120FFF7EEFE40B102232370094B88
:109B04001B6853B9BDE81040FFF782BFFFF7E2FEC0
:109B140008B10B23F2E72070F1E7002010BD00BF6D
:109B2400B8350020BC35002075DF704776DF7047FC
:109B34007FDF70478FDF70470146014801F086BA26
:109B4400C447002003881B2B13B5044641D01ED8FC
:109B5400112B2FD0132B4AD0102B1DD181883048C4
:109B6400002201F087FB08B1FDF70AFA0720FFF78E
:109B7400B7FE08B1FDF704FAA1882A4800F0BEFD3B
:109B840008B1FDF7FDF9284B01221A6004E0212BEE
:109B94003ED003D81F2B35D002B010BD3B2B01D0D3
:109BA400562BF9D11321A088FFF7C0FF70B1FDF740
:109BB400E7F90BE01D4B1E48A2881E49C01AC008D5
:109BC4000004237A40F00300FCF739FF164B00220F
:109BD400DBE7037A022BDFD1144B15481649C01A70
:109BE400C008000440F00300FCF71CFFD4E7002386
:109BF4001A4685218088FFF79BFF0028CCD0FDF70B
:109C0400BFF9C9E700F108018088FFF78DFFF4E789
:109C1400002301A98088ADF80430FFF78BFFECE73F
:109C2400C4470020002A0020C835002040C202009A
:109C340068C2020020CA02004ECA020008B50748E2
:109C440001F0C8F808B1FDF79BF90120FFF748FEC1
:109C540018B1BDE80840FDF793B908BD08480020D5
:109C64000378012B10B5044625D013B1022B13D071
:109C740010BD1448FDF772FD134B14481A68144BB9
:109C84001A60FFF738FC0028F2D001220D490F4872
:109C9400BDE81040FFF77EBC0E480F4B0F49C01AB9
:109CA400C008000440F00100FCF7BCFE6068BDE899
:109CB4001040FDF765B90748074B0949C01AC008A9
:109CC4000004EFE7CE350020C0350020E4C20200D6
:109CD400C435002068C2020040C20200C9CB0200A1
:109CE400FBCB020010B504460020FFF7F9FD08B1D4
:109CF400FDF746F924B9FFF7E7FE08B1FDF740F98F
:109D0400012010BD0A8840F677239A4270B50D46AB
:109D140014D10B4B0B4C0C49E41AE408240444F012
:109D240003042046FCF77EFEAB880849033B9BB244
:109D340020461A46BDE87040FCF781BE70BD00BFE6
:109D440040C2020068C20200E2CA0200FECA020067
:109D5400042808B506D00A2810D10020BDE8084020
:109D6400FEF7BAB8064B13215888FFF7DFFE30F030
:109D7400080303D0BDE80840FDF702B908BD00BFE1
:109D8400C44700202DE9F8431C4B1D4D1A680132CD
:109D94001A602B687BB302339A422CD3194C1A4BAA
:109DA4001A4E1B4FE41AE408240444F00304B0469A
:109DB400F42239461748FFF76CFB83B23380CBB1EA
:109DC400154B1B68002BF3D082B21449DFF8509076
:109DD4002046FCF72BFEB8F800203946484601F02F
:109DE4000BFA0828E4D01328F5D00028E0D0FDF7BA
:109DF400C7F8DDE72B60BDE8F88300BFC03500205D
:109E0400C435002068C2020040C20200CC350020E4
:109E1400C2360020E4C20200C83500207CCB020018
:109E2400C44700202DE9F8430B78012B06460D4664
:109E340024D01BB1022B40D0BDE8F883264B274C1D
:109E44002749E41AE408240444F003042046FCF7F8
:109E5400E9FD05F10E026988304601F00BFA08B1FC
:109E6400FDF78EF8304601F0A5F908B1FDF788F842
:109E740020461C49BDE8F843FCF7D4BD174C164BEB
:109E84008E688F89DFF86490E41AE408240444F0AF
:109E940001040025BD42CFD2705DFDF775FC8046FC
:109EA40048B11128F8D020462A464946FCF7BEFDA1
:109EB4004046FDF765F80135ECE7074B07480A49CA
:109EC400C01AC008000440F00300FCF7ABFDBDE875
:109ED400F843FFF7B3BE00BF40C2020068C20200ED
:109EE4006CCA020080CA0200D4CA0200AECA0200D0
:109EF4001FB50378062B12D0072B17D0042B2AD1B9
:109F0400164B17481749C01AC008000440F0030054
:109F1400FCF788FD04B0BDE81040FFF78FBE406831
:109F2400C8B104B0BDE81040FDF72AB841680B4C35
:109F34000B488B784A78001B8C7903944C790294F3
:109F44000C790194C008C97800910004064940F0D6
:109F54000300FCF77EFD04B010BD00BF40C2020048
:109F640068C20200B9CB02008BCB020008B50849D5
:109F7400084800F061FD08B1FDF702F8F721054833
:109F840000F06EFD18B1BDE80840FCF7F9BF08BD4C
:109F9400099D0200D447002000B54FF400418DB064
:109FA4000020FCF77BFB08B1FCF7EAFFFCF7ACFAF6
:109FB400FDF76EFA08B1FCF7E3FF544A5448012157
:109FC400FDF796FA0190019808B1FCF7D9FF514DBD
:109FD4000FCD06AC0FC495E803004F4B4F4A0293D4
:109FE4004FF4807384E80300CDE9042303934C4ABF
:109FF400072302A906A8FDF759FB08B1FCF7C0FF27
:10A0040048490120FFF778FC08B1FCF7B9FF06A91D
:10A014000020FFF769FD08B1FCF7B2FF424800F0E9
:10A0240033FB08B1FCF7ACFFFDF71AFF08B1FCF7EE
:10A03400A7FF01F077F908B1FCF7A2FF002306A9F6
:10A044000120069301F0FCF908B1FCF799FF06A87A
:10A0540001F0C6FA08B1FCF793FFFFF787FF334B13
:10A064003348069306A901F041F808B1FCF788FFCC
:10A074001022002106A801F0ADFC01232D4A2E4830
:10A084008DF81C3006A98DF8243000F051FE08B17B
:10A09400FCF776FF294A2848032100F0E1FD08B1C6
:10A0A400FCF76EFF00220421234800F027FE08B1CC
:10A0B400FCF766FF224A2048022100F0D1FD08B1D6
:10A0C400FCF75EFF012202211B4800F017FE08B1D5
:10A0D400FCF756FF00224FF4A4711A48FDF71AFA50
:10A0E400194801F01DFC194B19481A49C01AC00837
:10A0F400000440F00300FCF795FCFFF79FFDFCF71C
:10A1040027FB0028FBD1FDF7C1FEF8E7899D02007B
:10A1140028CB020008CA02006048002060490020E1
:10A12400659C0200559D02003D9B0200299E020091
:10A13400C4470020F59E02000848002032CB0200EC
:10A144002CCB0200E847002036CB020040C20200BC
:10A1540068C202005ACB02000369C1688B429DBFEA
:10A164008268D21802F1FF3203F1FF3394BF501A10
:10A17400581A70472DE9F041D0E9027405463E1B98
:10A184004068964220448846144404D901F0F9FBFF
:10A19400EC60BDE8F0813246E41B01F0F2FB22469C
:10A1A40008EB06016868F1E72DE9F843C56806463F
:10A1B400894617464FF000083469B3687068A542B1
:10A1C40028BFE418013C621B5C1BBC4228BF3C4610
:10A1D400944228BF144649462844224601F0D1FB44
:10A1E400B3682544AB4208BF00253F1BA044A144EB
:10A1F400F560E1D14046BDE8F883000010B5114C8C
:10A20400114AA2610223C4E90433104BE361A2643E
:10A214004FF400730E4A2362E264002310220D49B6
:10A22400A362E01D6362E362A3656365E36522657F
:10A2340001F003FC0849204601F0FFFB2023A37131
:10A2440010BD00BF604A002027CC0200E84A00206D
:10A25400D84A002030CC020034CC0200F8B5184CA7
:10A26400182300FB033503FB00402544C46A012C7A
:10A274000F46164611D024B1022C1BD000242046D0
:10A28400F8BD2846FFF768FFB042F8D33246394696
:10A294002846FFF76FFF3446F1E72846FFF75CFFD7
:10A2A4008642344628BF0446224639462846FFF7EC
:10A2B40061FFE4E72846BDE8F840FFF775BF00BF3B
:10A2C400604A0020FFF79ABF64DF704770B5C0B1E1
:10A2D4004AB116880024B44203D305196D789D420F
:10A2E40008D0A14201D800200BE0055D01352C44C3
:10A2F400A4B2F0E7A142F6D9A31C1380005D013893
:10A3040080B270BDF0B587B0002306460D461046F6
:10A31400ADF8063002AA10230DF105018DF80530C1
:10A32400FFF7D2FF16B9002007B0F0BD0028FAD11C
:10A334009DF80530042B2CD0102B2DD0022BF3D1FB
:10A344001C460323BDF806207AB90DF106022946FE
:10A354003046FFF7BBFFBDF806302BB923460DF19D
:10A3640006023046FFF7B2FF0546BDF80670002F1F
:10A37400D9D00024A542D6D9E0199DF8052002A918
:10A38400304401F092FA50B19DF805301C44A4B257
:10A39400F0E71C460523D5E706240723D2E701206E
:10A3A400C2E79BDF70479DDF70479EDF7047000068
:10A3B40030B50B4B19680B4B0022914201D10020A0
:10A3C40009E09D788478A54206D11D880488A542B9
:10A3D40002D1054B186830BD01320433EDE700BFEC
:10A3E400F04C0020F84F0020E84C002070B590F8A5
:10A3F400C63216467622A0B002FB03000D46FFF7D4
:10A40400D7FF044660B17C22002101A801F0E2FAE2
:10A4140001238DF80430ADF80660029501A8A04729
:10A4240020B070BD2DE9F74F8B4690F8C61201920B
:10A434007623804601FB03000091FFF7B9FF8146B4
:10A4440070B3194E3568052D2AD8184C0099019A15
:10A454004FEAC51A04EB0A07762303FB01817A80CD
:10A46400381D1A4601F08DFABBF1000F14BF00230A
:10A47400022304F80A300E4BC7F87C901A680135A1
:10A48400954235601D460BD10027E36F204698475F
:10A494002B6801379F4204F18004F6D30023336014
:10A4A40003B0BDE8F08F00BFF44F0020F44C00204F
:10A4B400F04C002037B590F8C53290F8C6220C460F
:10A4C400C3B1013B7621DBB25143122505FB0313D3
:10A4D40003445B8A01339BB2ADF80430762303FB5B
:10A4E400020201A91389ADF806302046FFF75BFF8D
:10A4F40003B030BD762303FB0203DB88ECE70000E6
:10A5040038B54FF433720D460021044601F062FA67
:10A51400114AA4F8CA5200231360104A84F8C932BD
:10A524001268226084F8C63284F8C53222460121BA
:10A534002846FFF736FF112806D020B9012384F8F6
:10A54400C73284F8C80238BD012284F8C72284F8CF
:10A55400C8221846F7E700BFF44F0020F84F002048
:10A5640070B50C4690F8C922174901320968D2B275
:10A574008A42034680F8C9224FF0000521D290F8A0
:10A58400C61280F8C5520131C9B280F8C6127620CD
:10A5940011FB00F00D4E1A1856F821101950012124
:10A5A40015712046FFF7FDFE014648B183F8C752F6
:10A5B40022461846FFF71AFF054B03221A705C80E7
:10A5C40070BD80F8C752F7E7F04C0020F84F002028
:10A5D400F44C00202DE9F34790F8C65290F8C54298
:10A5E400762315FB03F54619122796F804E017FBAA
:10A5F400045304F1010C0A33F445034411D000F16F
:10A604001C0A06F122080EF1FF39AA44E5B2AE4550
:10A614000BD9A1451D891AD133899D4226D1002326
:10A624001DE01B893089834205D101230B70002072
:10A6340002B0BDE8F0870133ADF80430ADF8060090
:10A6440000230B70104601A9FFF7AFFEF0E707FBEC
:10A6540004F3013538F803C065450DD1534490F82F
:10A66400C552013580F8C5520134CFE70135ADF844
:10A674000450ADF80630E3E70CF1FF3CADF80450AC
:10A68400ADF806C0DCE7000058B1074A00231360A8
:10A69400064A01211170064A1360064A10601846E2
:10A6A40070470E20704700BFF04C0020EC4C002097
:10A6B400F44F0020E84C002010B5044680B10C4B48
:10A6C4001B787BB1FFF774FE70B90A4A1368052B37
:10A6D4000CD80949246841F823400133136010BDA4
:10A6E4000E20FCE70820FAE70020F8E70420F6E74C
:10A6F400EC4C0020F04C0020F84F002050B1084AE8
:10A7040012784AB1074A126832B190F8C7322BB9AD
:10A71400FFF7F6BE0E2070470820704711207047DF
:10A72400EC4C0020F04C00202DE9F7430C46054684
:10A73400C8B1C1B1974B1B78ABB10388302B35D06E
:10A7440014D8112B00F0158194F8C8325BB12B8812
:10A75400303B1F2B07D8B4F8CA32A988994202D1DA
:10A764002046FFF7CDFE03B0BDE8F083322B3FD087
:10A77400332BE9D18288B1F8CA329342E4D1C68836
:10A7840091F8C6C291F8C572002E00F0BC80762103
:10A7940001FB0C4C7B1C9CF8041000268B428DF8AA
:10A7A400076000F0E08084F8C5329DE08388B1F84A
:10A7B400CA229A42C8D1C6888EB991F8C632762187
:10A7C40001FB03430169C3F8061020461146FFF755
:10A7D40071FE01460028B7D084F8C7624CE000211E
:10A7E4002046FFF71FFEA9882046FFF7B9FEABE716
:10A7F4008288B1F8CA329A42A6D1C388002B6FD19D
:10A8040091F8C662762316FB03F701EB0709837AF6
:10A8140099F804603344062B38DC89F8043006EBDD
:10A82400C60307EB430305F10C0C2344002299F8FB
:10A83400040086420CF10A0C03F112033DD31223E7
:10A84400013E03FB064694F8C632762202FB03431C
:10A854003E441B89728A9A4242D2062840D0A98873
:10A8640084F8C5022046FFF725FE014600283FF480
:10A874006BAF002384F8C732AA882046FFF7B6FDE1
:10A88400454B03221A70AA885A805DE7062389F88B
:10A894000430424A424BA3EB02084FEAD8084FEA7D
:10A8A400084848F00208CA5B3E494046FCF7BEF837
:10A8B4003D494046FCF7B6F8B1E76046A3F108010C
:10A8C40050F80AED43F808ECD0F804E043F804EC3F
:10A8D4000089088101365A809A80DA801A81A6E7B5
:10A8E400002684F8C562AA880DF107012046FFF707
:10A8F40071FE014600287FF46FAF9DF80730002BEE
:10A904003FF422AF32E0762303FB0CF1122303FB66
:10A914000713B0F80AE023447645BFF438AFC18981
:10A92400A1F52451082908D8DFE801F01417050718
:10A93400070707071A0081899982998A39B1D98A48
:10A9440029B1198B19B1598B00297FF420AF013635
:10A954000630E1E78189D982EFE781891983ECE741
:10A9640081895983E9E701238DF80730AA880121F9
:10A9740036E78288B1F8CA329A427FF4E5AE002302
:10A9840081F8C73281F8C8324FF6FF73A1F8CA3292
:10A99400DAE600BFEC4C0020F44C002040C2020078
:10A9A40070C202003BCC020081CC020090DF7047F1
:10A9B400A5DF7047B5DF70477FB50023ADF80810F9
:10A9C400ADF80A106A4602A9064603930093ADF84F
:10A9D4000430FFF7EBFF054600B3124B124CE41AA8
:10A9E400E408FDF711FB240444F001040346324655
:10A9F4000E492046FCF723F8BDF80020BDF80230CC
:10AA040052EA030103D00A492046FCF718F8BDF8BE
:10AA140004201AB107492046FCF708F8284604B078
:10AA240070BD00BF40C2020090C20200E7CC020029
:10AA340031CD020070CD020080B14FF0F7130360F6
:10AA4400FB230371F723C3801723038141F6FB32F1
:10AA54000023016143818281184670470E207047AC
:10AA640030B1A1F11703E02B04D8418000207047D6
:10AA74000E2070470720704713B5034680880C46A4
:10AA8400A0B91A88232A00F0A48011D8102A22D051
:10AA9400112A51D0A37A4BB1E1880020FFF788FF37
:10AAA400002840F09C804FF48073638102B010BD95
:10AAB4003A2A4AD0552A60D0242AEBD11A7A0B6953
:10AAC4004A73002BE6D04DF67A21ADF804000091CC
:10AAD4008DF8042079E0DB7B0A790A73012B13D00B
:10AAE400022B14D0E18823898B4205D20020FFF782
:10AAF4005FFF70B90123E372217B637B8B42C9D270
:10AB04000020FFF759FFC5E70B88E380EAE74B888D
:10AB1400FBE7112802D10123A372EDE7FDF774FAD4
:10AB2400374A384B38499B1ADB081B04024643F06A
:10AB34000100FBF77BFFDFE7F723CB8017230B81B3
:10AB440041F6FB3348818B81A4E75B89CA88934231
:10AB540028BF1346172B0A6938BF17230B814AB144
:10AB6400C97A39B140F677210091ADF804306946CD
:10AB740020469047002363818CE7DB88C988A07254
:10AB8400172B38BF17238B4228BF0B462381FFF7AF
:10AB940011FF60B1FDF738FA194A1A4B1B499B1A89
:10ABA400DB081B04024643F00100FBF73FFFE37A96
:10ABB400002B7FF46FAF2369002B3FF46BAF40F69B
:10ABC400772200922289ADF80420694620469847EE
:10ABD40060E7197A237B994228BF194691E7112827
:10ABE4003FF464AFFDF710FA054A064B06499B1A79
:10ABF400DB081B04024643F00100FBF717FF55E78F
:10AC040040C2020090C20200C6CD0200F7CD02008D
:10AC14008ADF70478BDF70478CDF704770B5837CA9
:10AC240086B004460D46C3B1067FFFF7F3FF142236
:10AC3400002101A800F0CEFE334604F1140204F111
:10AC44001E01A81CFFF7E8FF06238DF804300290CC
:10AC540018B1E36A0BB101A8984706B070BD0000B3
:10AC640037B515460446002842D0002A40D00229B0
:10AC740004D0032930D0072003B030BDC379002BA2
:10AC840038D106222946013000F00FFE0028F3D007
:10AC9400AB1D6A4613F8011D02F8011BAB42F9D142
:10ACA400E3799DF800201448C3EBC3039209E15CE7
:10ACB400825C62F34701E1540022E379A95CC3EBAF
:10ACC400C303234413440132062A5970F5D1E379AE
:10ACD4000133E3710020CFE7807B58B962892B8868
:10ACE4009A42C9D00123A3732B68C4F80A30C3E77E
:10ACF4000E20C1E70420BFE733CE020078B1CB06B3
:10AD04000FD000230372C3738B0744BF0123037264
:10AD14004B0744BF0123C3730274002070470E2005
:10AD2400704707207047807FC0F3C0007047000061
:10AD340038B50D460446002846D0C26200211222CE
:10AD440000F048FE85B32B79A3742B7B23772B6803
:10AD5400D3B104F11E0203F10C0153F8040B42F8C1
:10AD6400040B8B42F9D11B881380AA68B2B1106816
:10AD7400516804F1140303C304F1300323651F2352
:10AD8400A4F85430002038BDE28BA38402F0E3021F
:10AD940042F48272E2830D4A2262E6E70C494FF0E4
:10ADA400C873C4E90513E7E7E38B094AA58403F0F4
:10ADB400E30343F48273E383044B23624FF0C873C9
:10ADC400C4E90523A574D7E70E20DCE7A0005000F2
:10ADD4000600180010B5044686B048B314220021BA
:10ADE40001A800F0F7FDFFF715FF2046FFF79BFFD2
:10ADF40030B1E36A23B101228DF8042001A89847F9
:10AE040004F1500104F11E00FFF702FF044630F084
:10AE140008000BD0074B08480849C01AC0080004B2
:10AE240040F001002246FBF701FE204606B010BDAB
:10AE34000E20FBE740C2020080C2020037CE0200AF
:10AE44002DE9F04F05468DB035F8083B1B2B8146A4
:10AE54000C4600F0CB8005D8102B00F0DF800DB03D
:10AE6400BDE8F08F1D2B17D0202BF8D11422002120
:10AE740007A800F0AFFDE26A002AF0D028686968EC
:10AE840005238DF81C3008AB03C31E34297A0B94B8
:10AE9400197007A89047E2E71422002107A800F0E0
:10AEA40099FD04F11E0320460B93FFF73CFF04F1C8
:10AEB40050030293064678B102238DF81C3007A88C
:10AEC400E36A0895984702990020FFF7A1FE2946F6
:10AED4002046FFF7A3FEC2E7237C0093E37B0193A4
:10AEE400237A002B3ED094F807B02746804609F118
:10AEF4000B0A5FFA88F25A4519D34FF0000801276C
:10AF0400019B002B53D0A27B0192B9F82420039219
:10AF1400019A237C013704EB8202FFB2A346049218
:10AF24004FF0000A049A93451FD193BB2CE099F883
:10AF34000A2039785208B2EB510F03D008F1010806
:10AF44000737D6E706225146781C00F0AEFC0028ED
:10AF5400F4D19DF82430012643F002038DF8243007
:10AF6400B046CCE780460746CAE70BF10A020399CC
:10AF7400D9F820000593FFF7C5F9059B40B10AF104
:10AF8400010A5FFA8AFA3BBBBAF1000F0FD003E063
:10AF940013B3019B53450AD19DF8243008F10108ED
:10AFA40043F004035FFA88F88DF824300126009BEF
:10AFB4000895A3B1474515D10023294620468DF8AD
:10AFC4001C30FFF72BFEE36A0BB107A898470299E0
:10AFD4000020FFF71DFE42E70BF1040BA2E70EB1C0
:10AFE400009BEAE703238DF81C30ECE714220021D0
:10AFF40007A800F0EFFC99F80820012A7FF42FAF8E
:10B00400E36A002B3FF42BAF04211E348DF81C108F
:10B014000B948DF8202007A8984720E714220021DC
:10B0240007A800F0D7FC07238DF81C30B9F80430CA
:10B03400ADF8243004F11E030B93E36A0895002B4A
:10B04400E9D10CE7A3DF704762DF70472DE9F041D7
:10B054000C4686B005461422002101A800F0BAFC73
:10B0640023785BBBA288012A28D1A1792A7891424E
:10B0740024D1277ABDF81260BDF81400BDF816C0BB
:10B08400122111FB074122461F469E46914218D1C8
:10B09400BEF1000F01D0ADF816C00FB1ADF81260CB
:10B0A4000BB1ADF81400EB6843B16288ADF806202B
:10B0B40000228DF8042001A92846984706B0BDE86F
:10B0C400F081B2F80E80B8F1020F04D0B8F1030F8A
:10B0D40006D01232DAE7B2F816C04FF0010EF8E7E4
:10B0E4000123D68A108B1F46F3E70000F0B5154AFA
:10B0F40087B002AC03460E4602F1100C27461068D6
:10B104005168254603C5083262452C46F7D1BBB1C8
:10B11400B6B119463846FFF797FF78B91A788DF813
:10B1240006200122ADF804204FF6FF725A803268DF
:10B13400DA609880188101A8FFF7BEFA07B0F0BD65
:10B144000E20FBE764CE02007FB503460846F9B142
:10B15400F3B14A884FF6FF718A4202D0998891422E
:10B1640016D11988112916D0392911D182887AB1BA
:10B17400598991420CD1C26852B101218DF8041051
:10B1840003F11001DB890391ADF8103001A9904758
:10B1940007B05DF804FB9B889342F9D1C368002B88
:10B1A400F6D002228DF804204FF6FF72428001A9E6
:10B1B4009847EDE71FB50346D0B140884FF6FF72BC
:10B1C400904217D0DB88ABB10122ADF80020ADF876
:10B1D400063040F201124FF4003301A9ADF8042007
:10B1E4000293CDF80CD0FFF72DFF05B05DF804FBFA
:10B1F4000E20FAE70820F8E71FB5034680B3F42AC7
:10B204000CD9184B18481949C01AC008000440F05A
:10B214000200FBF707FC072004B010BD40884FF67E
:10B22400FF74A0420BD10F4B0F481149C01AC0083C
:10B23400000440F00200FBF7F5FB0820ECE71B8953
:10B24400ADF806304FF481740023039101A9ADF8E1
:10B254000440ADF80830ADF80A20FFF7F3FEDBE751
:10B264000E20D9E740C2020078C2020074CE020068
:10B2740086CE020048B141802AB15388C380138826
:10B28400838093880381002070470E20704710DF6D
:10B294007047000013B5044609496846FCF77FFE71
:10B2A400019808B902B010BDD0E900312046984792
:10B2B40018B16846FCF77DFEF2E71120F2E700BF03
:10B2C400B0CE020013B5044607496846FCF767FE92
:10B2D400019B0BB902B010BD2046D3E90021904771
:10B2E4006846FCF766FEF3E7C8CE02000B4991F806
:10B2F40016335A09EC231341DB0706D5084B9A6829
:10B304003AB94FF480030B60704742F20200FBF736
:10B3140037BE1A6842F480021A60704700E100E008
:10B324003C340020F7B5194F3C7864BB184E012516
:10B3340020463570FFF7AEFF112821D02046FFF7D5
:10B34400C1FF144B8DF80340186801900DF1030000
:10B35400FCF742FA104901A8FFF799FF0446B0FA36
:10B3640080F0400938709DF80300FCF759FA3CB9A5
:10B374000A4B34701C70FFF7B9FF2846FFF7A2FF91
:10B38400204603B0F0BD0824FAE700BF11500020A6
:10B3940010500020ABCE0200A16F0200125000201A
:10B3A400014B1878704700BF1150002007B50849B9
:10B3B4006846FCF7F4FD019B13B903B05DF804FB88
:10B3C400D3E9002090476846FCF7F3FDF3E700BF9C
:10B3D400BCCE0200FFF7EABF60DF704769DF704749
:10B3E40061DF704730B5114DADF5017D4FF4FA744E
:10B3F4000DF1020103A8ADF80240FFF7F1FF70B9A7
:10B40400294601A8FCF7CBFD029B002BF0D003A832
:10B41400D3E90021904701A8FCF7CBFDF4E7052808
:10B4240001D0FBF7ADFD0DF5017D30BD4CD102001F
:10B43400024B1B780BB1FFF7D5BF704713500020A8
:10B4440030B5054685B00C46002900F0B4805B4B4E
:10B454000B600C22002101A800F0BCFA01238DF836
:10B46400063022688DF80450062301A92020ADF887
:10B474000830FFF7B3FF60B1FCF7C6FD504A514BEB
:10B4840051499B1ADB081B04024643F00100FBF7F9
:10B49400CDFA0C22002101A800F09CFA00238DF8BB
:10B4A4000530226840F2011301A94020ADF80630AE
:10B4B400FFF794FF60B1FCF7A7FD414A414B4349B4
:10B4C4009B1ADB081B04024643F00100FBF7AEFAAB
:10B4D4000C22002101A800F07DFAF72322688DF8E0
:10B4E400045001A92320ADF80630FFF777FF60B1BF
:10B4F400FCF78AFD324A334B35499B1ADB081B049F
:10B50400024643F00100FBF791FA0C22002101A846
:10B5140000F060FA012022688DF8040001A9FFF709
:10B524005DFF60B1FCF770FD254A264B29499B1A43
:10B53400DB081B04024643F00100FBF777FA0C22F8
:10B54400002101A800F046FA4FF4B0632268019389
:10B5540001A9A120FFF742FF60B1FCF755FD184A8D
:10B56400184B1D499B1ADB081B04024643F00100DB
:10B57400FBF75CFA0C22002101A800F02BFA9DF8DD
:10B58400043022686FF3000301A9A0208DF8043071
:10B59400FFF724FF68B1FCF737FD094A094B0F494F
:10B5A4009B1ADB081B04024643F00100FBF73EFA3A
:10B5B400002005B030BD0E20FBE700BFE0290020CD
:10B5C40040C20200A0C20200DCCE020022CF020070
:10B5D4006ECF0200B5CF020001D0020052D00200AB
:10B5E400F8B506460768FFF7F7FE3368BB42054621
:10B5F4001DD9194B194C1A49E41AE408240444F0DF
:10B6040002042046FBF70EFA336816493A462046F0
:10B61400FBF715FA4FF080533268D3F80C31124916
:10B624009B0203F100539A1A2046FBF7FFF925B950
:10B634000E4B01221A702846F8BD2846FCF7E4FC9C
:10B64400054A064B0A499B1ADB081B04024643F0D1
:10B654000100FBF7EBF9EEE740C20200A0C20200D2
:10B66400A5D00200D4D0020005D10200135000205E
:10B674002FD102004BDF70471FB50D4C01A8FFF717
:10B68400F9FF70B9214602A8FCF789FC039B002B43
:10B69400F4D00198D3E90021904702A8FCF789FC73
:10B6A400F4E7052801D0FBF76BFC04B010BD00BF24
:10B6B40064D1020053EA020C61D02DE9F04BB3FAD5
:10B6C40083F51E0007BFB2FA82F502FA05F403FA05
:10B6D40005F41646C5F120051EBF22FA05F73C43C2
:10B6E400203556EA044C4FEA144418BF0134A346EB
:10B6F4004FF00009C846904271EB030C39D309425C
:10B7040007BFB0FA80F700FA07F6B1FA81F701FA39
:10B7140007F6C7F120071EBF20FA07FC46EA0C060D
:10B724002037B6FBFBFC7F1B103F07F01F04C4F15E
:10B7340020060CFA04F42CFA06F644BF344600261C
:10B74400202FA4BF2646002454EA060C08BF012477
:10B7540018EB040849EB0609A4FB027CC01B06FB9A
:10B7640002CC04FB03CC71EB0C01904271EB030C93
:10B77400C5D20B46024649464046BDE8F08BB2FBB3
:10B78400F3F200007F2805D8034B185C034B5B5C85
:10B7940018407047002070477CD10200FCD10200A1
:10B7A400A0F16103192B98BF20387047A0F1410321
:10B7B400192B98BF203070477F2805D8034B185C9D
:10B7C400034B5B5C18407047002070477CD102003B
:10B7D400FCD10200A0F16103192B98BF20387047F7
:10B7E400A0F14103192B98BF203070477F299ABFDD
:10B7F400017001206FF02E0070475AB10A787F2A39
:10B804000AD800B10260002119605960501A18BFAB
:10B8140001207047002070476FF02E00704738B544
:10B8240004460846A26842B1236861685D1C8D42E3
:10B8340008BF00208B4208D2D054E3682BB12168A2
:10B844006268914201D221469847236801332360FC
:10B8540038BD70B54C1E09D41646C5B229463046CB
:10B86400FFF7DDFF013CB4F1FF3FF7D170BD10F0ED
:10B87400100F09D108B500F40070002814BF30205F
:10B884002020FFF7E6FF08BD7047000008B5034B12
:10B894005B689B681B68984708BD00BFCC2C0020E0
:10B8A40008B50921FFF7F2FF08BD002A36D070B4AD
:10B8B40013460F2A1AD940EA010212F0030F01D0ED
:10B8C4005A1E15E004680A689442F9D1043B041D29
:10B8D4000A1D114620460434043206680D68AE423F
:10B8E400EED120461146043B042BF2D85A1E10D048
:10B8F40004780B789C420CD1431C4C1C024418461F
:10B904002146934205D00133013406780D78AE42C6
:10B91400F5D000780B78C01A70BC704700207047CF
:10B924000FB410B586B008AB53F8044B059300234D
:10B9340003936FF000430293084B049300F0CFF895
:10B94400059A214601A800F0CDF8044600F0C8F895
:10B95400204606B0BDE8104004B0704721800200C4
:10B96400037853B159B10144034613F8012F12B1BE
:10B974008B42FAD10B46181A70470346FBE703467D
:10B98400F9E7844640EA010313F0030F18D1844613
:10B99400202A0BD32DE9F007B1E8F807A0E8F8074F
:10B9A400A2F12002202AF7D2BDE8F007042A07D327
:10B9B40051F8043B40F8043BA2F10402042AF7D2F4
:10B9C400002A05D011F8013B00F8013B013AF9D1F6
:10B9D400604670478446002A2DD010F0030F04D02F
:10B9E40000F8011B013A26D0F7E7C9B241EA012168
:10B9F40041EA0141202A12D3A2F120022DE9F003E9
:10BA04000B460C460D460E460F4688468946A0E86E
:10BA1400FA03203AFBD2BDE8F00320320BD0042A0B
:10BA240005D340F8041B043A05D0042AF9D200F8DF
:10BA3400011B013AFBD160467047024610F0030F28
:10BA440016D111F0030F13D12DE9F0004FF0013797
:10BA54004FF0803351F8044BA4EB070525EA0405A5
:10BA64001D4002D142F8044BF4E7A1F10401F0BCFB
:10BA740011F8013B02F8013B002BF9D1704700F1AA
:10BA8400010110F0030F11D010F8012B002A23D06C
:10BA940010F0030F0AD010F8012B002A1CD010F06C
:10BAA400030F03D010F8012B002A15D02DE97000E4
:10BAB4004FF001324FF0803350F8044BA4EB0205F1
:10BAC40025EA04051D4000D1F6E7A0F1040070BC8E
